{
  "transactions": [
    {
      "hash": "0x205947f319c7c10475b7c4f3eb1de025267262fe711cfc3d9abd05eb5095abfc",
      "transactionType": "CREATE",
      "contractName": "FeedRegistry",
      "contractAddress": "0x93cefc4f32abeae2df23bb8d74a8fa2ccacdeb4b",
      "function": null,
      "arguments": null,
      "transaction": {
        "from": "0x235a2ac113014f9dcb8aba6577f20290832ddefd",
        "gas": "0x333639",
        "value": "0x0",
        "input": "0x6080604052348015600e575f5ffd5b5060156019565b60c9565b7ff0c57e16840df040f15088dc2f81fe391c3923bec73e23a9662efc9c229c6a00805468010000000000000000900460ff161560685760405163f92ee8a960e01b815260040160405180910390fd5b80546001600160401b039081161460c65780546001600160401b0319166001600160401b0390811782556040519081527fc7f505b2f371ae2175ee4913f4499e1f2633a7b5936321eed1cdaeb6115181d29060200160405180910390a15b50565b612d31806100d65f395ff3fe608060405234801561000f575f5ffd5b50600436106101e7575f3560e01c80638da5cb5b11610109578063c9648e1a1161009e578063db8907031161006e578063db890703146104e3578063f2fde38b146104f6578063f315df8614610509578063f834c9881461051c575f5ffd5b8063c9648e1a14610497578063d547741f146104aa578063d54c954b146104bd578063d83bd334146104d0575f5ffd5b8063ac77f572116100d9578063ac77f57214610429578063be62d72514610449578063c4d66de81461045c578063c76ece321461046f575f5ffd5b80638da5cb5b146103bf57806391d14854146103ef578063a217fddf14610402578063a63112e714610409575f5ffd5b806335a076121161017f57806367f28bda1161014f57806367f28bda146103895780636d86b4781461039c578063715018a6146103a457806389ad7503146103ac575f5ffd5b806335a07612146102fd57806336568abe1461033a57806354fd4d501461034d578063607c12b514610374575f5ffd5b80632288368d116101ba5780632288368d1461027b578063248a9ca3146102b65780632b898c25146102d75780632f2ff15d146102ea575f5ffd5b8063011aa7ce146101eb57806301ffc9a71461020057806306b30688146102285780630a6c790e1461023b575b5f5ffd5b6101fe6101f936600461278e565b61052f565b005b61021361020e3660046127c5565b610740565b60405190151581526020015b60405180910390f35b6101fe6102363660046127f3565b610776565b61026361024936600461283b565b60046020525f90815260409020546001600160a01b031681565b6040516001600160a01b03909116815260200161021f565b61028e610289366004612856565b610975565b604080516001600160a01b03948516815293909216602084015215159082015260600161021f565b6102c96102c4366004612856565b6109b9565b60405190815260200161021f565b6101fe6102e536600461278e565b6109d9565b6101fe6102f836600461286d565b610d34565b61031061030b366004612856565b610d56565b604080516001600160a01b039485168152928416602084015292169181019190915260600161021f565b6101fe61034836600461286d565b610d96565b60408051808201825260058152640312e302e360dc1b6020820152905161021f9190612890565b61037c610dce565b60405161021f91906128c5565b61037c61039736600461278e565b610e2d565b61037c610f2f565b6101fe610f8d565b6101fe6103ba366004612924565b610fa0565b7f9016d09d72d40fdae2fd8ceac6b6234c7706214fd39c1cd1e609a0528c199300546001600160a01b0316610263565b6102136103fd36600461286d565b610fb6565b6102c95f81565b61041c61041736600461278e565b610fec565b60405161021f9190612a69565b61043c61043736600461283b565b6110c4565b60405161021f9190612a7b565b6101fe610457366004612ade565b6111c2565b6101fe61046a36600461283b565b6114e9565b61026361047d36600461283b565b60056020525f90815260409020546001600160a01b031681565b6101fe6104a53660046127f3565b611602565b6101fe6104b836600461286d565b611893565b61041c6104cb36600461278e565b6118af565b6101fe6104de366004612856565b6119c0565b6102136104f136600461278e565b611d8f565b6101fe61050436600461283b565b611e04565b6101fe61051736600461283b565b611e46565b6101fe61052a366004612856565b612077565b610537612252565b610540826122ad565b6001600160a01b0381166105675760405163e6c4247b60e01b815260040160405180910390fd5b6001600160a01b03821661058e5760405163e6c4247b60e01b815260040160405180910390fd5b6001600160a01b038181165f9081526004602052604090205416156105c657604051636d12062960e01b815260040160405180910390fd5b6001600160a01b038281165f9081526005602052604090205416156105fe576040516317759ec560e31b815260040160405180910390fd5b816001600160a01b0316816001600160a01b031663217a4b706040518163ffffffff1660e01b8152600401602060405180830381865afa158015610644573d5f5f3e3d5ffd5b505050506040513d601f19601f820116820180604052508101906106689190612b6f565b6001600160a01b03161461068f5760405163ef6f1f1560e01b815260040160405180910390fd5b5f8054600181810183557f290decd9548b62a8d60345a988386fc84ba6bc95484008f6362f93160ef3e56390910180546001600160a01b039485166001600160a01b0319918216811790925582548084019093557fb10e2d527612073b26eecdfd717e6a320cf44b4afac2b0732d9fcbe2b7fa0cf690920180549590941694821685179093558282526004602090815260408084208054841687179055948352600590529290208054909216179055565b5f6001600160e01b03198216637965db0b60e01b148061077057506301ffc9a760e01b6001600160e01b03198316145b92915050565b61077e612252565b6001600160a01b038084165f9081526005602052604090205416806107b6576040516394e72c6b60e01b815260040160405180910390fd5b6001600160a01b038181165f90815260026020908152604080832093871683529290522060010154600160a01b900460ff1661080557604051636b85d76f60e11b815260040160405180910390fd5b6001600160a01b038082165f9081526002602081815260408084209488168452939052918120909101905b815481101561092357836001600160a01b031682828154811061085557610855612b8a565b5f918252602090912001546001600160a01b03160361091b578154829061087e90600190612b9e565b8154811061088e5761088e612b8a565b905f5260205f20015f9054906101000a90046001600160a01b03168282815481106108bb576108bb612b8a565b905f5260205f20015f6101000a8154816001600160a01b0302191690836001600160a01b03160217905550818054806108f6576108f6612bbd565b5f8281526020902081015f1990810180546001600160a01b0319169055019055610923565b600101610830565b50826001600160a01b0316846001600160a01b0316866001600160a01b03167f8f46b1945c42643576240ccf490dd656ca2bcb788848869730f4c659db10589060405160405180910390a45050505050565b60068181548110610984575f80fd5b5f918252602090912060039091020180546001909101546001600160a01b03918216925090811690600160a01b900460ff1683565b5f9081525f516020612cdc5f395f51905f52602052604090206001015490565b6109e1612252565b6001600160a01b038083165f908152600560205260409020541680610a19576040516394e72c6b60e01b815260040160405180910390fd5b6001600160a01b038181165f908152600260208181526040808420878616855282528084208151608081018352815487168152600182015496871681850152600160a01b90960460ff1615158683015292830180548251818502810185019093528083529495946060860193830182828015610abc57602002820191905f5260205f20905b81546001600160a01b03168152600190910190602001808311610a9e575b50505050508152505090508060400151610ae957604051636b85d76f60e11b815260040160405180910390fd5b6001600160a01b038083165f908152600260208181526040808420948816845293905291812080546001600160a01b03191681556001810180546001600160a81b031916905591610b3c908301826126ac565b5050604080516001600160a01b03851660208201525f917f0caceb24b146885ae17af1b1d0d14fcb3bba2b85301c273d73d3f506e1287333910160408051601f1981840301815290829052610b949291602001612be8565b6040516020818303038152906040529050610baf8382612334565b6001600160a01b0383165f908152600360205260408120805490915b81811015610d2a57866001600160a01b0316838281548110610bef57610bef612b8a565b5f9182526020909120600160039092020101546001600160a01b031603610d225782610c1c600184612b9e565b81548110610c2c57610c2c612b8a565b905f5260205f209060030201838281548110610c4a57610c4a612b8a565b5f9182526020909120825460039092020180546001600160a01b03199081166001600160a01b039384161782556001808501805491840180549384169290951691821785555460ff600160a01b91829004161515026001600160a81b0319909216171790915560028083018054610cc492840191906126c7565b5090505082805480610cd857610cd8612bbd565b5f8281526020812060035f199093019283020180546001600160a01b03191681556001810180546001600160a81b031916905590610d1960028301826126ac565b50509055610d2a565b600101610bcb565b5050505050505050565b610d3d826109b9565b610d46816123f6565b610d508383612400565b50505050565b60078181548110610d65575f80fd5b5f9182526020909120600390910201805460018201546002909201546001600160a01b039182169350918116911683565b6001600160a01b0381163314610dbf5760405163334bd91960e11b815260040160405180910390fd5b610dc982826124a1565b505050565b60605f805480602002602001604051908101604052809291908181526020018280548015610e2357602002820191905f5260205f20905b81546001600160a01b03168152600190910190602001808311610e05575b5050505050905090565b6001600160a01b038083165f908152600560205260409020546060911680610e68576040516394e72c6b60e01b815260040160405180910390fd5b6001600160a01b038181165f908152600260209081526040808320878516845290915290206001015416610eaf57604051633917193960e01b815260040160405180910390fd5b6001600160a01b038082165f9081526002602081815260408084209488168452938152918390200180548351818402810184019094528084529091830182828015610f2157602002820191905f5260205f20905b81546001600160a01b03168152600190910190602001808311610f03575b505050505091505092915050565b60606001805480602002602001604051908101604052809291908181526020018280548015610e2357602002820191905f5260205f209081546001600160a01b03168152600190910190602001808311610e05575050505050905090565b610f95612252565b610f9e5f61251a565b565b610fa8612252565b610fb28282612334565b5050565b5f9182525f516020612cdc5f395f51905f52602090815260408084206001600160a01b0393909316845291905290205460ff1690565b604080516080810182525f80825260208201819052918101919091526060808201526001600160a01b038381165f90815260026020818152604080842087861685528252928390208351608081018552815486168152600182015495861681840152600160a01b90950460ff1615158585015291820180548451818402810184019095528085529293606086019390928301828280156110b357602002820191905f5260205f20905b81546001600160a01b03168152600190910190602001808311611095575b505050505081525050905092915050565b6001600160a01b0381165f908152600360209081526040808320805482518185028101850190935280835260609492939192909184015b828210156111b7575f848152602090819020604080516080810182526003860290920180546001600160a01b039081168452600182015490811684860152600160a01b900460ff161515838301526002810180548351818702810187019094528084529394919360608601939283018282801561119f57602002820191905f5260205f20905b81546001600160a01b03168152600190910190602001808311611181575b505050505081525050815260200190600101906110fb565b505050509050919050565b6001600160a01b038085165f9081526005602052604090205416806111fa576040516394e72c6b60e01b815260040160405180910390fd5b6112038461258a565b6001600160a01b038181165f90815260026020908152604080832088851684529091529020541615611248576040516328dbb26760e01b815260040160405180910390fd5b5f849050806001600160a01b031663feaf968c6040518163ffffffff1660e01b815260040160a060405180830381865afa158015611288573d5f5f3e3d5ffd5b505050506040513d601f19601f820116820180604052508101906112ac9190612c29565b505f93505050505b8381101561139a575f8585838181106112cf576112cf612b8a565b90506020020160208101906112e4919061283b565b6001600160a01b03160361130b5760405163e6c4247b60e01b815260040160405180910390fd5b84848281811061131d5761131d612b8a565b9050602002016020810190611332919061283b565b6001600160a01b03166318160ddd6040518163ffffffff1660e01b8152600401602060405180830381865afa15801561136d573d5f5f3e3d5ffd5b505050506040513d601f19601f820116820180604052508101906113919190612c77565b506001016112b4565b5060066040518060800160405280846001600160a01b03168152602001876001600160a01b031681526020015f151581526020018686808060200260200160405190810160405280939291908181526020018383602002808284375f920182905250939094525050835460018181018655948252602091829020845160039092020180546001600160a01b039283166001600160a01b031990911617815582850151958101805460408701511515600160a01b026001600160a81b031990911697909316969096179190911790945560608301518051939493611487935060028501929190910190612713565b505050846001600160a01b0316866001600160a01b0316336001600160a01b03167fe3bd7e17963bf77a36b430c3919b9e26f5cc2ea23b6fd30060bfa23a362df13a87876040516114d9929190612c8e565b60405180910390a4505050505050565b7ff0c57e16840df040f15088dc2f81fe391c3923bec73e23a9662efc9c229c6a008054600160401b810460ff16159067ffffffffffffffff165f8115801561152e5750825b90505f8267ffffffffffffffff16600114801561154a5750303b155b905081158015611558575080155b156115765760405163f92ee8a960e01b815260040160405180910390fd5b845467ffffffffffffffff1916600117855583156115a057845460ff60401b1916600160401b1785555b6115a986612611565b6115b35f87612400565b5083156115fa57845460ff60401b19168555604051600181527fc7f505b2f371ae2175ee4913f4499e1f2633a7b5936321eed1cdaeb6115181d29060200160405180910390a15b505050505050565b61160b816122ad565b6001600160a01b038084165f908152600560205260409020541680611643576040516394e72c6b60e01b815260040160405180910390fd5b6001600160a01b038181165f908152600260208181526040808420888616855282528084208151608081018352815487168152600182015496871681850152600160a01b90960460ff16151586830152928301805482518185028101850190935280835294959460608601938301828280156116e657602002820191905f5260205f20905b81546001600160a01b031681526001909101906020018083116116c8575b5050505050815250509050806040015161171357604051636b85d76f60e11b815260040160405180910390fd5b5f5b81606001515181101561177957836001600160a01b03168260600151828151811061174257611742612b8a565b60200260200101516001600160a01b0316036117715760405163156e81c160e01b815260040160405180910390fd5b600101611715565b50604080516060810182526001600160a01b038781168083528782166020808501828152898516868801818152600780546001810182555f91909152975160039098027fa66cc928b5edb82af9bd49922954155ab7b0942694bea4ce44661d9a8736c688810180549989166001600160a01b03199a8b1617905592517fa66cc928b5edb82af9bd49922954155ab7b0942694bea4ce44661d9a8736c68984018054918916918a16919091179055517fa66cc928b5edb82af9bd49922954155ab7b0942694bea4ce44661d9a8736c68a909201805492909616919096161790935593519283529133917f3dd3183c5a81964e5df8e169cbf87a42e84be05112c6dfdea9c04869116f20d3910160405180910390a45050505050565b61189c826109b9565b6118a5816123f6565b610d5083836124a1565b604080516080810182525f80825260208201819052918101919091526060808201526001600160a01b038084165f908152600560205260409020541680611909576040516394e72c6b60e01b815260040160405180910390fd5b6001600160a01b038181165f90815260026020818152604080842088861685528252928390208351608081018552815486168152600182015495861681840152600160a01b90950460ff1615158585015291820180548451818402810184019095528085529293606086019390928301828280156119ae57602002820191905f5260205f20905b81546001600160a01b03168152600190910190602001808311611990575b50505050508152505091505092915050565b6119c8612252565b60065481106119ea57604051633917193960e01b815260040160405180910390fd5b5f600682815481106119fe576119fe612b8a565b5f91825260209182902060408051608081018252600390930290910180546001600160a01b03908116845260018201549081168486015260ff600160a01b9091041615158383015260028101805483518187028101870190945280845293949193606086019392830182828015611a9c57602002820191905f5260205f20905b81546001600160a01b03168152600190910190602001808311611a7e575b5050509190925250505060208101519091506001600160a01b038116611ad557604051633917193960e01b815260040160405180910390fd5b6001604080840182815284516001600160a01b038082165f908152600460209081528582205460028083528784208a86168552835296909220895181549085166001600160a01b0319909116178155818a0151978101805496511515600160a01b026001600160a81b031990971698851698909817959095179096556060880151805193969190921694889493611b7493918501929190910190612713565b5050506001600160a01b038281165f908152600360208181526040808420805460018082018355918652948390208a519590940290930180546001600160a01b031916948616949094178455888201519284018054918a0151939095166001600160a81b031990911617600160a01b9215159290920291909117909255606086015180518793611c0b926002850192910190612713565b5050604080516001600160a01b03861660208201525f92507f3817cb52b411ba6b992602ea533a928f30d1391a9c6e2e221d53a7ef07482f43910160408051601f1981840301815290829052611c649291602001612be8565b6040516020818303038152906040529050611c7f8382612334565b60068681548110611c9257611c92612b8a565b5f9182526020822060039091020180546001600160a01b03191681556001810180546001600160a81b031916905590611cce60028301826126ac565b5050836001600160a01b0316826001600160a01b03167f9248b8612daaf0886d656b647e989378fea4de940d2217263536e28bb0e4c48560405160405180910390a36060850151515f5b81811015610d2a5786606001518181518110611d3657611d36612b8a565b60200260200101516001600160a01b0316866001600160a01b0316856001600160a01b03167fdf0726194f92213c2625dc475a4febaa3d3601a21999057763f8910d04587fdd60405160405180910390a4600101611d18565b6001600160a01b038083165f9081526005602052604081205490911680611dc9576040516394e72c6b60e01b815260040160405180910390fd5b6001600160a01b039081165f9081526002602090815260408083209386168352929052206001015460ff600160a01b90910416905092915050565b611e0c612252565b6001600160a01b038116611e3a57604051631e4fbdf760e01b81525f60048201526024015b60405180910390fd5b611e438161251a565b50565b611e4e612252565b6001600160a01b038082165f81815260046020818152604080842080549096168085526005835290842080546001600160a01b03199081169091559484529190528354909216909255815490915b81811015611f8257836001600160a01b03165f8281548110611ec057611ec0612b8a565b5f918252602090912001546001600160a01b031603611f7a575f611ee5600184612b9e565b81548110611ef557611ef5612b8a565b5f91825260208220015481546001600160a01b03909116919083908110611f1e57611f1e612b8a565b5f918252602082200180546001600160a01b0319166001600160a01b039390931692909217909155805480611f5557611f55612bbd565b5f8281526020902081015f1990810180546001600160a01b0319169055019055611f82565b600101611e9c565b50506001545f5b81811015610d5057826001600160a01b031660018281548110611fae57611fae612b8a565b5f918252602090912001546001600160a01b03160361206f576001611fd38184612b9e565b81548110611fe357611fe3612b8a565b5f91825260209091200154600180546001600160a01b03909216918390811061200e5761200e612b8a565b905f5260205f20015f6101000a8154816001600160a01b0302191690836001600160a01b03160217905550600180548061204a5761204a612bbd565b5f8281526020902081015f1990810180546001600160a01b0319169055019055610d50565b600101611f89565b61207f612252565b60075481106120a157604051633917193960e01b815260040160405180910390fd5b5f600782815481106120b5576120b5612b8a565b5f91825260209182902060408051606081018252600390930290910180546001600160a01b0390811684526001820154811694840194909452600201549092169181018290529150612106906122ad565b80516001600160a01b039081165f9081526005602090815260408083205484168084526002835281842083870151909516845293909152902060010154600160a01b900460ff1661216a57604051636b85d76f60e11b815260040160405180910390fd5b6001600160a01b038181165f908152600260208181526040808420878301518616855282528084209087015192018054600181018255908452922090910180546001600160a01b0319169190921617905560078054849081106121cf576121cf612b8a565b5f9182526020808320600390920290910180546001600160a01b031990811682556001820180548216905560029091018054909116905560408085015191850151855191516001600160a01b03938416949184169392909216917fdf0726194f92213c2625dc475a4febaa3d3601a21999057763f8910d04587fdd9190a4505050565b336122847f9016d09d72d40fdae2fd8ceac6b6234c7706214fd39c1cd1e609a0528c199300546001600160a01b031690565b6001600160a01b031614610f9e5760405163118cdaa760e01b8152336004820152602401611e31565b6001600160a01b0381166122d45760405163e6c4247b60e01b815260040160405180910390fd5b806001600160a01b03166318160ddd6040518163ffffffff1660e01b8152600401602060405180830381865afa158015612310573d5f5f3e3d5ffd5b505050506040513d601f19601f82011682018060405250810190610fb29190612c77565b6001600160a01b038281165f908152600460205260409020541661236b576040516394e72c6b60e01b815260040160405180910390fd5b5f5f836001600160a01b0316836040516123859190612cd0565b5f604051808303815f865af19150503d805f81146123be576040519150601f19603f3d011682016040523d82523d5f602084013e6123c3565b606091505b509150915081610d50578051156123dd5780518082602001fd5b604051638c76daeb60e01b815260040160405180910390fd5b611e438133612622565b5f5f516020612cdc5f395f51905f526124198484610fb6565b612498575f848152602082815260408083206001600160a01b03871684529091529020805460ff1916600117905561244e3390565b6001600160a01b0316836001600160a01b0316857f2f8788117e7eff1d82e926ec794901d17c78024a50270940304540a733656f0d60405160405180910390a46001915050610770565b5f915050610770565b5f5f516020612cdc5f395f51905f526124ba8484610fb6565b15612498575f848152602082815260408083206001600160a01b0387168085529252808320805460ff1916905551339287917ff6391f5c32d9c69d2a47ea670b442974b53935d1edc7fd64eb21e047a839171b9190a46001915050610770565b7f9016d09d72d40fdae2fd8ceac6b6234c7706214fd39c1cd1e609a0528c19930080546001600160a01b031981166001600160a01b03848116918217845560405192169182907f8be0079c531659141344cd1fd0a4f28419497f9722a3daafe3b4186f6b6457e0905f90a3505050565b6001600160a01b0381166125b15760405163e6c4247b60e01b815260040160405180910390fd5b806001600160a01b031663feaf968c6040518163ffffffff1660e01b815260040160a060405180830381865afa1580156125ed573d5f5f3e3d5ffd5b505050506040513d601f19601f820116820180604052508101906115fa9190612c29565b61261961265b565b611e43816126a4565b61262c8282610fb6565b610fb25760405163e2517d3f60e01b81526001600160a01b038216600482015260248101839052604401611e31565b7ff0c57e16840df040f15088dc2f81fe391c3923bec73e23a9662efc9c229c6a0054600160401b900460ff16610f9e57604051631afcd79f60e31b815260040160405180910390fd5b611e0c61265b565b5080545f8255905f5260205f2090810190611e439190612766565b828054828255905f5260205f20908101928215612703575f5260205f209182015b828111156127035782548255916001019190600101906126e8565b5061270f929150612766565b5090565b828054828255905f5260205f20908101928215612703579160200282015b8281111561270357825182546001600160a01b0319166001600160a01b03909116178255602090920191600190910190612731565b5b8082111561270f575f8155600101612767565b6001600160a01b0381168114611e43575f5ffd5b5f5f6040838503121561279f575f5ffd5b82356127aa8161277a565b915060208301356127ba8161277a565b809150509250929050565b5f602082840312156127d5575f5ffd5b81356001600160e01b0319811681146127ec575f5ffd5b9392505050565b5f5f5f60608486031215612805575f5ffd5b83356128108161277a565b925060208401356128208161277a565b915060408401356128308161277a565b809150509250925092565b5f6020828403121561284b575f5ffd5b81356127ec8161277a565b5f60208284031215612866575f5ffd5b5035919050565b5f5f6040838503121561287e575f5ffd5b8235915060208301356127ba8161277a565b602081525f82518060208401528060208501604085015e5f604082850101526040601f19601f83011684010191505092915050565b602080825282518282018190525f918401906040840190835b818110156129055783516001600160a01b03168352602093840193909201916001016128de565b509095945050505050565b634e487b7160e01b5f52604160045260245ffd5b5f5f60408385031215612935575f5ffd5b82356129408161277a565b9150602083013567ffffffffffffffff81111561295b575f5ffd5b8301601f8101851361296b575f5ffd5b803567ffffffffffffffff81111561298557612985612910565b604051601f8201601f19908116603f0116810167ffffffffffffffff811182821017156129b4576129b4612910565b6040528181528282016020018710156129cb575f5ffd5b816020840160208301375f602083830101528093505050509250929050565b80516001600160a01b03908116835260208083015190911681840152604080830151151590840152606080830151608091850182905280519185018290525f920190829060a08601905b80831015612a5f5783516001600160a01b031682526020938401936001939093019290910190612a34565b5095945050505050565b602081525f6127ec60208301846129ea565b5f602082016020835280845180835260408501915060408160051b8601019250602086015f5b82811015612ad257603f19878603018452612abd8583516129ea565b94506020938401939190910190600101612aa1565b50929695505050505050565b5f5f5f5f60608587031215612af1575f5ffd5b8435612afc8161277a565b93506020850135612b0c8161277a565b9250604085013567ffffffffffffffff811115612b27575f5ffd5b8501601f81018713612b37575f5ffd5b803567ffffffffffffffff811115612b4d575f5ffd5b8760208260051b8401011115612b61575f5ffd5b949793965060200194505050565b5f60208284031215612b7f575f5ffd5b81516127ec8161277a565b634e487b7160e01b5f52603260045260245ffd5b8181038181111561077057634e487b7160e01b5f52601160045260245ffd5b634e487b7160e01b5f52603160045260245ffd5b5f81518060208401855e5f93019283525090919050565b6001600160e01b0319831681525f612c036004830184612bd1565b949350505050565b805169ffffffffffffffffffff81168114612c24575f5ffd5b919050565b5f5f5f5f5f60a08688031215612c3d575f5ffd5b612c4686612c0b565b60208701516040880151606089015192975090955093509150612c6b60808701612c0b565b90509295509295909350565b5f60208284031215612c87575f5ffd5b5051919050565b602080825281018290525f8360408301825b85811015612a5f578235612cb38161277a565b6001600160a01b0316825260209283019290910190600101612ca0565b5f6127ec8284612bd156fe02dd7bc7dec4dceedda775e58dd541e08a116c6c53815c0bd028192f7b626800a264697066735822122035c3593fb8d01925367f01f269622054491b1ab9e0f35a797f84e42c900edba164736f6c634300081c0033",
        "nonce": "0x7cc",
        "chainId": "0x138d4"
      },
      "additionalContracts": [],
      "isFixedGasLimit": false
    },
    {
      "hash": "0x440881f128438b66dcfdb3c5a4029bea30f53415cd1d2d5eb394e988fe69ec62",
      "transactionType": "CREATE",
      "contractName": "Proxy",
      "contractAddress": "0x952c430dcc00f623708d1cbbece3a6f5741b1384",
      "function": null,
      "arguments": [
        "0x93ceFc4F32AbEaE2Df23bb8D74a8FA2CcAcDEb4B",
        "0xD208203a7A54fFA823E9B0061a21260Ed38EcE6C",
        "0xc4d66de8000000000000000000000000235a2ac113014f9dcb8aba6577f20290832ddefd"
      ],
      "transaction": {
        "from": "0x235a2ac113014f9dcb8aba6577f20290832ddefd",
        "gas": "0xea93f",
        "value": "0x0",
        "input": "0x60a0604052604051610e37380380610e3783398101604081905261002291610370565b82828282816100318282610092565b50508160405161004090610334565b6001600160a01b039091168152602001604051809103905ff080158015610069573d5f5f3e3d5ffd5b506001600160a01b031660805261008761008260805190565b6100f0565b505050505050610457565b61009b8261015d565b6040516001600160a01b038316907fbc7cd75a20ee27fd9adebab32041f755214dbc6bffa90cc0225b39da2e5c2d3b905f90a28051156100e4576100df82826101db565b505050565b6100ec61024e565b5050565b7f7e644d79422f17c01e4894b5f4f588d331ebfa28653d42ae832dc59e38c9798f61012f5f516020610e175f395f51905f52546001600160a01b031690565b604080516001600160a01b03928316815291841660208301520160405180910390a161015a8161026f565b50565b806001600160a01b03163b5f0361019757604051634c9c8ce360e01b81526001600160a01b03821660048201526024015b60405180910390fd5b807f360894a13ba1a3210667c828492db98dca3e2076cc3735a920a3ca505d382bbc5b80546001600160a01b0319166001600160a01b039290921691909117905550565b60605f5f846001600160a01b0316846040516101f79190610441565b5f60405180830381855af49150503d805f811461022f576040519150601f19603f3d011682016040523d82523d5f602084013e610234565b606091505b5090925090506102458583836102ac565b95945050505050565b341561026d5760405163b398979f60e01b815260040160405180910390fd5b565b6001600160a01b03811661029857604051633173bdd160e11b81525f600482015260240161018e565b805f516020610e175f395f51905f526101ba565b6060826102c1576102bc8261030b565b610304565b81511580156102d857506001600160a01b0384163b155b1561030157604051639996b31560e01b81526001600160a01b038516600482015260240161018e565b50805b9392505050565b80511561031b5780518082602001fd5b60405163d6bda27560e01b815260040160405180910390fd5b6104e68061093183390190565b80516001600160a01b0381168114610357575f5ffd5b919050565b634e487b7160e01b5f52604160045260245ffd5b5f5f5f60608486031215610382575f5ffd5b61038b84610341565b925061039960208501610341565b60408501519092506001600160401b038111156103b4575f5ffd5b8401601f810186136103c4575f5ffd5b80516001600160401b038111156103dd576103dd61035c565b604051601f8201601f19908116603f011681016001600160401b038111828210171561040b5761040b61035c565b604052818152828201602001881015610422575f5ffd5b8160208401602083015e5f602083830101528093505050509250925092565b5f82518060208501845e5f920191825250919050565b6080516104bd6104745f395f818160350152607201526104bd5ff3fe60806040526004361061001d575f3560e01c80638b3240a014610027575b610025610070565b005b348015610032575f5ffd5b507f00000000000000000000000000000000000000000000000000000000000000006040516001600160a01b03909116815260200160405180910390f35b7f00000000000000000000000000000000000000000000000000000000000000006001600160a01b031633036100dc575f356001600160e01b03191663278f794360e11b146100d2576040516334ad5dbb60e21b815260040160405180910390fd5b6100da6100e9565b565b6100da610117565b905090565b5f806100f83660048184610365565b81019061010591906103a0565b915091506101138282610127565b5050565b6100da610122610181565b6101b3565b610130826101d1565b6040516001600160a01b038316907fbc7cd75a20ee27fd9adebab32041f755214dbc6bffa90cc0225b39da2e5c2d3b905f90a280511561017957610174828261024c565b505050565b6101136102be565b5f6100e47f360894a13ba1a3210667c828492db98dca3e2076cc3735a920a3ca505d382bbc546001600160a01b031690565b365f5f375f5f365f845af43d5f5f3e8080156101cd573d5ff35b3d5ffd5b806001600160a01b03163b5f0361020b57604051634c9c8ce360e01b81526001600160a01b03821660048201526024015b60405180910390fd5b7f360894a13ba1a3210667c828492db98dca3e2076cc3735a920a3ca505d382bbc80546001600160a01b0319166001600160a01b0392909216919091179055565b60605f5f846001600160a01b0316846040516102689190610471565b5f60405180830381855af49150503d805f81146102a0576040519150601f19603f3d011682016040523d82523d5f602084013e6102a5565b606091505b50915091506102b58583836102dd565b95945050505050565b34156100da5760405163b398979f60e01b815260040160405180910390fd5b6060826102f2576102ed8261033c565b610335565b815115801561030957506001600160a01b0384163b155b1561033257604051639996b31560e01b81526001600160a01b0385166004820152602401610202565b50805b9392505050565b80511561034c5780518082602001fd5b60405163d6bda27560e01b815260040160405180910390fd5b5f5f85851115610373575f5ffd5b8386111561037f575f5ffd5b5050820193919092039150565b634e487b7160e01b5f52604160045260245ffd5b5f5f604083850312156103b1575f5ffd5b82356001600160a01b03811681146103c7575f5ffd5b9150602083013567ffffffffffffffff8111156103e2575f5ffd5b8301601f810185136103f2575f5ffd5b803567ffffffffffffffff81111561040c5761040c61038c565b604051601f8201601f19908116603f0116810167ffffffffffffffff8111828210171561043b5761043b61038c565b604052818152828201602001871015610452575f5ffd5b816020840160208301375f602083830101528093505050509250929050565b5f82518060208501845e5f92019182525091905056fea2646970667358221220e1d41c0240698fbfc01d375b18b328bddb99ef819f03c230a6efbef2501325f764736f6c634300081c00336080604052348015600e575f5ffd5b506040516104e63803806104e6833981016040819052602b9160b4565b806001600160a01b038116605857604051631e4fbdf760e01b81525f600482015260240160405180910390fd5b605f816065565b505060df565b5f80546001600160a01b038381166001600160a01b0319831681178455604051919092169283917f8be0079c531659141344cd1fd0a4f28419497f9722a3daafe3b4186f6b6457e09190a35050565b5f6020828403121560c3575f5ffd5b81516001600160a01b038116811460d8575f5ffd5b9392505050565b6103fa806100ec5f395ff3fe608060405260043610610049575f3560e01c8063715018a61461004d5780638da5cb5b146100635780639623609d1461008e578063ad3cb1cc146100a1578063f2fde38b146100de575b5f5ffd5b348015610058575f5ffd5b506100616100fd565b005b34801561006e575f5ffd5b505f546040516001600160a01b0390911681526020015b60405180910390f35b61006161009c366004610260565b610110565b3480156100ac575f5ffd5b506100d1604051806040016040528060058152602001640352e302e360dc1b81525081565b6040516100859190610365565b3480156100e9575f5ffd5b506100616100f836600461037e565b61017b565b6101056101bd565b61010e5f6101e9565b565b6101186101bd565b60405163278f794360e11b81526001600160a01b03841690634f1ef2869034906101489086908690600401610399565b5f604051808303818588803b15801561015f575f5ffd5b505af1158015610171573d5f5f3e3d5ffd5b5050505050505050565b6101836101bd565b6001600160a01b0381166101b157604051631e4fbdf760e01b81525f60048201526024015b60405180910390fd5b6101ba816101e9565b50565b5f546001600160a01b0316331461010e5760405163118cdaa760e01b81523360048201526024016101a8565b5f80546001600160a01b038381166001600160a01b0319831681178455604051919092169283917f8be0079c531659141344cd1fd0a4f28419497f9722a3daafe3b4186f6b6457e09190a35050565b6001600160a01b03811681146101ba575f5ffd5b634e487b7160e01b5f52604160045260245ffd5b5f5f5f60608486031215610272575f5ffd5b833561027d81610238565b9250602084013561028d81610238565b9150604084013567ffffffffffffffff8111156102a8575f5ffd5b8401601f810186136102b8575f5ffd5b803567ffffffffffffffff8111156102d2576102d261024c565b604051601f8201601f19908116603f0116810167ffffffffffffffff811182821017156103015761030161024c565b604052818152828201602001881015610318575f5ffd5b816020840160208301375f602083830101528093505050509250925092565b5f81518084528060208401602086015e5f602082860101526020601f19601f83011685010191505092915050565b602081525f6103776020830184610337565b9392505050565b5f6020828403121561038e575f5ffd5b813561037781610238565b6001600160a01b03831681526040602082018190525f906103bc90830184610337565b94935050505056fea264697066735822122099f4840b60c21ae71b6900b64d45bfdab04e6b394f7dbc4ae190c4076cd4a8ff64736f6c634300081c0033b53127684a568b3173ae13b9f8a6016e243e63b6e8ee1178d6a717850b5d610300000000000000000000000093cefc4f32abeae2df23bb8d74a8fa2ccacdeb4b000000000000000000000000d208203a7a54ffa823e9b0061a21260ed38ece6c00000000000000000000000000000000000000000000000000000000000000600000000000000000000000000000000000000000000000000000000000000024c4d66de8000000000000000000000000235a2ac113014f9dcb8aba6577f20290832ddefd00000000000000000000000000000000000000000000000000000000",
        "nonce": "0x7cd",
        "chainId": "0x138d4"
      },
      "additionalContracts": [
        {
          "transactionType": "CREATE",
          "address": "0x68ba950cdb521c90719d279e20ef2bdc3c95dc3c",
          "initCode": "0x6080604052348015600e575f5ffd5b506040516104e63803806104e6833981016040819052602b9160b4565b806001600160a01b038116605857604051631e4fbdf760e01b81525f600482015260240160405180910390fd5b605f816065565b505060df565b5f80546001600160a01b038381166001600160a01b0319831681178455604051919092169283917f8be0079c531659141344cd1fd0a4f28419497f9722a3daafe3b4186f6b6457e09190a35050565b5f6020828403121560c3575f5ffd5b81516001600160a01b038116811460d8575f5ffd5b9392505050565b6103fa806100ec5f395ff3fe608060405260043610610049575f3560e01c8063715018a61461004d5780638da5cb5b146100635780639623609d1461008e578063ad3cb1cc146100a1578063f2fde38b146100de575b5f5ffd5b348015610058575f5ffd5b506100616100fd565b005b34801561006e575f5ffd5b505f546040516001600160a01b0390911681526020015b60405180910390f35b61006161009c366004610260565b610110565b3480156100ac575f5ffd5b506100d1604051806040016040528060058152602001640352e302e360dc1b81525081565b6040516100859190610365565b3480156100e9575f5ffd5b506100616100f836600461037e565b61017b565b6101056101bd565b61010e5f6101e9565b565b6101186101bd565b60405163278f794360e11b81526001600160a01b03841690634f1ef2869034906101489086908690600401610399565b5f604051808303818588803b15801561015f575f5ffd5b505af1158015610171573d5f5f3e3d5ffd5b5050505050505050565b6101836101bd565b6001600160a01b0381166101b157604051631e4fbdf760e01b81525f60048201526024015b60405180910390fd5b6101ba816101e9565b50565b5f546001600160a01b0316331461010e5760405163118cdaa760e01b81523360048201526024016101a8565b5f80546001600160a01b038381166001600160a01b0319831681178455604051919092169283917f8be0079c531659141344cd1fd0a4f28419497f9722a3daafe3b4186f6b6457e09190a35050565b6001600160a01b03811681146101ba575f5ffd5b634e487b7160e01b5f52604160045260245ffd5b5f5f5f60608486031215610272575f5ffd5b833561027d81610238565b9250602084013561028d81610238565b9150604084013567ffffffffffffffff8111156102a8575f5ffd5b8401601f810186136102b8575f5ffd5b803567ffffffffffffffff8111156102d2576102d261024c565b604051601f8201601f19908116603f0116810167ffffffffffffffff811182821017156103015761030161024c565b604052818152828201602001881015610318575f5ffd5b816020840160208301375f602083830101528093505050509250925092565b5f81518084528060208401602086015e5f602082860101526020601f19601f83011685010191505092915050565b602081525f6103776020830184610337565b9392505050565b5f6020828403121561038e575f5ffd5b813561037781610238565b6001600160a01b03831681526040602082018190525f906103bc90830184610337565b94935050505056fea264697066735822122099f4840b60c21ae71b6900b64d45bfdab04e6b394f7dbc4ae190c4076cd4a8ff64736f6c634300081c0033000000000000000000000000d208203a7a54ffa823e9b0061a21260ed38ece6c"
        }
      ],
      "isFixedGasLimit": false
    },
    {
      "hash": "0x0e02d34d2a58699b96bcff6d3d35845b8dc939acf3dbc81946e3e50a835f7edb",
      "transactionType": "CALL",
      "contractName": null,
      "contractAddress": "0x6df961030ef9c2e2d79af42603e4ccc32b41fd64",
      "function": "callDeployer(address,bytes)",
      "arguments": [
        "0x8E826703B6D471732415ABd4a1E724A3bF451511",
        "0xf2fde38b000000000000000000000000952c430dcc00f623708d1cbbece3a6f5741b1384"
      ],
      "transaction": {
        "from": "0x235a2ac113014f9dcb8aba6577f20290832ddefd",
        "to": "0x6df961030ef9c2e2d79af42603e4ccc32b41fd64",
        "gas": "0x10d20",
        "value": "0x0",
        "input": "0x89ad75030000000000000000000000008e826703b6d471732415abd4a1e724a3bf45151100000000000000000000000000000000000000000000000000000000000000400000000000000000000000000000000000000000000000000000000000000024f2fde38b000000000000000000000000952c430dcc00f623708d1cbbece3a6f5741b138400000000000000000000000000000000000000000000000000000000",
        "nonce": "0x7ce",
        "chainId": "0x138d4"
      },
      "additionalContracts": [],
      "isFixedGasLimit": false
    },
    {
      "hash": "0x0966973387d9937a9394c424021b6e606e9d611b4c11191d06203fccfb4d5923",
      "transactionType": "CALL",
      "contractName": null,
      "contractAddress": "0x6df961030ef9c2e2d79af42603e4ccc32b41fd64",
      "function": "callDeployer(address,bytes)",
      "arguments": [
        "0x33c608b9e7Ae1877dcb665Bd3d2D3bb327b01156",
        "0xf2fde38b000000000000000000000000952c430dcc00f623708d1cbbece3a6f5741b1384"
      ],
      "transaction": {
        "from": "0x235a2ac113014f9dcb8aba6577f20290832ddefd",
        "to": "0x6df961030ef9c2e2d79af42603e4ccc32b41fd64",
        "gas": "0x10d20",
        "value": "0x0",
        "input": "0x89ad750300000000000000000000000033c608b9e7ae1877dcb665bd3d2d3bb327b0115600000000000000000000000000000000000000000000000000000000000000400000000000000000000000000000000000000000000000000000000000000024f2fde38b000000000000000000000000952c430dcc00f623708d1cbbece3a6f5741b138400000000000000000000000000000000000000000000000000000000",
        "nonce": "0x7cf",
        "chainId": "0x138d4"
      },
      "additionalContracts": [],
      "isFixedGasLimit": false
    },
    {
      "hash": "0xfb24be5bf07b298adbec5ba4fb6250b828730168962cc09c906b9b5d47b5bd6d",
      "transactionType": "CALL",
      "contractName": null,
      "contractAddress": "0x6df961030ef9c2e2d79af42603e4ccc32b41fd64",
      "function": "callDeployer(address,bytes)",
      "arguments": [
        "0x8520b4Ed7E7e54343ADe583E6A7864718535eCa9",
        "0xf2fde38b000000000000000000000000952c430dcc00f623708d1cbbece3a6f5741b1384"
      ],
      "transaction": {
        "from": "0x235a2ac113014f9dcb8aba6577f20290832ddefd",
        "to": "0x6df961030ef9c2e2d79af42603e4ccc32b41fd64",
        "gas": "0x10d20",
        "value": "0x0",
        "input": "0x89ad75030000000000000000000000008520b4ed7e7e54343ade583e6a7864718535eca900000000000000000000000000000000000000000000000000000000000000400000000000000000000000000000000000000000000000000000000000000024f2fde38b000000000000000000000000952c430dcc00f623708d1cbbece3a6f5741b138400000000000000000000000000000000000000000000000000000000",
        "nonce": "0x7d0",
        "chainId": "0x138d4"
      },
      "additionalContracts": [],
      "isFixedGasLimit": false
    },
    {
      "hash": "0xbd2af66a9fa40f4806b3df27842fe1135bce9e52aa4f6004e71621a474edb6f8",
      "transactionType": "CALL",
      "contractName": null,
      "contractAddress": "0x6df961030ef9c2e2d79af42603e4ccc32b41fd64",
      "function": "callDeployer(address,bytes)",
      "arguments": [
        "0x39da60365de955d03c6C1AB7b80e8a4c458FA87e",
        "0xf2fde38b000000000000000000000000952c430dcc00f623708d1cbbece3a6f5741b1384"
      ],
      "transaction": {
        "from": "0x235a2ac113014f9dcb8aba6577f20290832ddefd",
        "to": "0x6df961030ef9c2e2d79af42603e4ccc32b41fd64",
        "gas": "0x10d20",
        "value": "0x0",
        "input": "0x89ad750300000000000000000000000039da60365de955d03c6c1ab7b80e8a4c458fa87e00000000000000000000000000000000000000000000000000000000000000400000000000000000000000000000000000000000000000000000000000000024f2fde38b000000000000000000000000952c430dcc00f623708d1cbbece3a6f5741b138400000000000000000000000000000000000000000000000000000000",
        "nonce": "0x7d1",
        "chainId": "0x138d4"
      },
      "additionalContracts": [],
      "isFixedGasLimit": false
    },
    {
      "hash": "0xbe4d9f3f0c012551b5e46857a0f07ecab1cc2690a36b08de677bbed5de208e17",
      "transactionType": "CALL",
      "contractName": null,
      "contractAddress": "0x6df961030ef9c2e2d79af42603e4ccc32b41fd64",
      "function": "callDeployer(address,bytes)",
      "arguments": [
        "0xb468a7AC04db7B07d8D2a8DeC3e6008397eC3E4D",
        "0xf2fde38b000000000000000000000000952c430dcc00f623708d1cbbece3a6f5741b1384"
      ],
      "transaction": {
        "from": "0x235a2ac113014f9dcb8aba6577f20290832ddefd",
        "to": "0x6df961030ef9c2e2d79af42603e4ccc32b41fd64",
        "gas": "0x10d0f",
        "value": "0x0",
        "input": "0x89ad7503000000000000000000000000b468a7ac04db7b07d8d2a8dec3e6008397ec3e4d00000000000000000000000000000000000000000000000000000000000000400000000000000000000000000000000000000000000000000000000000000024f2fde38b000000000000000000000000952c430dcc00f623708d1cbbece3a6f5741b138400000000000000000000000000000000000000000000000000000000",
        "nonce": "0x7d2",
        "chainId": "0x138d4"
      },
      "additionalContracts": [],
      "isFixedGasLimit": false
    },
    {
      "hash": "0x44b96c9a28a9104fc125b70ae4e5e2630a05c997fcd63dea0ae284d6bd37fe06",
      "transactionType": "CALL",
      "contractName": null,
      "contractAddress": "0x6df961030ef9c2e2d79af42603e4ccc32b41fd64",
      "function": "callDeployer(address,bytes)",
      "arguments": [
        "0xC3adc5347663C4fb93ad5029B6382a9f7fE73B05",
        "0xf2fde38b000000000000000000000000952c430dcc00f623708d1cbbece3a6f5741b1384"
      ],
      "transaction": {
        "from": "0x235a2ac113014f9dcb8aba6577f20290832ddefd",
        "to": "0x6df961030ef9c2e2d79af42603e4ccc32b41fd64",
        "gas": "0x10d20",
        "value": "0x0",
        "input": "0x89ad7503000000000000000000000000c3adc5347663c4fb93ad5029b6382a9f7fe73b0500000000000000000000000000000000000000000000000000000000000000400000000000000000000000000000000000000000000000000000000000000024f2fde38b000000000000000000000000952c430dcc00f623708d1cbbece3a6f5741b138400000000000000000000000000000000000000000000000000000000",
        "nonce": "0x7d3",
        "chainId": "0x138d4"
      },
      "additionalContracts": [],
      "isFixedGasLimit": false
    },
    {
      "hash": "0x3369613dca6c1859a1ba8cfd533a7a72599d31939d1b64affb2a807549fbae74",
      "transactionType": "CALL",
      "contractName": "Proxy",
      "contractAddress": "0x952c430dcc00f623708d1cbbece3a6f5741b1384",
      "function": null,
      "arguments": null,
      "transaction": {
        "from": "0x235a2ac113014f9dcb8aba6577f20290832ddefd",
        "to": "0x952c430dcc00f623708d1cbbece3a6f5741b1384",
        "gas": "0x4238a",
        "value": "0x0",
        "input": "0x011aa7ce0000000000000000000000000e4aaf1351de4c0264c5c7056ef3777b41bd8e030000000000000000000000008e826703b6d471732415abd4a1e724a3bf451511",
        "nonce": "0x7d4",
        "chainId": "0x138d4"
      },
      "additionalContracts": [],
      "isFixedGasLimit": false
    },
    {
      "hash": "0x062a4bd2ccebd361f3c6f12df845566baf30e844b6900c6894a942bb53927e8a",
      "transactionType": "CALL",
      "contractName": "Proxy",
      "contractAddress": "0x952c430dcc00f623708d1cbbece3a6f5741b1384",
      "function": null,
      "arguments": null,
      "transaction": {
        "from": "0x235a2ac113014f9dcb8aba6577f20290832ddefd",
        "to": "0x952c430dcc00f623708d1cbbece3a6f5741b1384",
        "gas": "0x31703",
        "value": "0x0",
        "input": "0x011aa7ce000000000000000000000000f5afcf50006944d17226978e594d4d25f4f92b4000000000000000000000000033c608b9e7ae1877dcb665bd3d2d3bb327b01156",
        "nonce": "0x7d5",
        "chainId": "0x138d4"
      },
      "additionalContracts": [],
      "isFixedGasLimit": false
    },
    {
      "hash": "0x1f4edc27dea70546ba6ace674666511e9a9cd48441e7c0f28df2928d1bc2092d",
      "transactionType": "CALL",
      "contractName": "Proxy",
      "contractAddress": "0x952c430dcc00f623708d1cbbece3a6f5741b1384",
      "function": null,
      "arguments": null,
      "transaction": {
        "from": "0x235a2ac113014f9dcb8aba6577f20290832ddefd",
        "to": "0x952c430dcc00f623708d1cbbece3a6f5741b1384",
        "gas": "0x31676",
        "value": "0x0",
        "input": "0x011aa7ce000000000000000000000000d6d83af58a19cd14ef3cf6fe848c9a4d21e5727c0000000000000000000000008520b4ed7e7e54343ade583e6a7864718535eca9",
        "nonce": "0x7d6",
        "chainId": "0x138d4"
      },
      "additionalContracts": [],
      "isFixedGasLimit": false
    },
    {
      "hash": "0x86af41bdd6eb36b039f4c0518890224f5427a8de5490df37c7fca22b1c6cc777",
      "transactionType": "CALL",
      "contractName": "Proxy",
      "contractAddress": "0x952c430dcc00f623708d1cbbece3a6f5741b1384",
      "function": null,
      "arguments": null,
      "transaction": {
        "from": "0x235a2ac113014f9dcb8aba6577f20290832ddefd",
        "to": "0x952c430dcc00f623708d1cbbece3a6f5741b1384",
        "gas": "0x316e0",
        "value": "0x0",
        "input": "0x011aa7ce000000000000000000000000501dbf23c2b004d751496adc073da3727c5fe80f00000000000000000000000039da60365de955d03c6c1ab7b80e8a4c458fa87e",
        "nonce": "0x7d7",
        "chainId": "0x138d4"
      },
      "additionalContracts": [],
      "isFixedGasLimit": false
    },
    {
      "hash": "0x0376a5430cae1809a6f84761ef2b3e2046f6e233a2f37f4eb88bdd71ec5fbdf7",
      "transactionType": "CALL",
      "contractName": "Proxy",
      "contractAddress": "0x952c430dcc00f623708d1cbbece3a6f5741b1384",
      "function": null,
      "arguments": null,
      "transaction": {
        "from": "0x235a2ac113014f9dcb8aba6577f20290832ddefd",
        "to": "0x952c430dcc00f623708d1cbbece3a6f5741b1384",
        "gas": "0x34555",
        "value": "0x0",
        "input": "0x011aa7ce000000000000000000000000482c38cd33e79a3e3c1cce792a72d41bafffd416000000000000000000000000b468a7ac04db7b07d8d2a8dec3e6008397ec3e4d",
        "nonce": "0x7d8",
        "chainId": "0x138d4"
      },
      "additionalContracts": [],
      "isFixedGasLimit": false
    },
    {
      "hash": "0xdefe1ecc490304d3ee3c24323369b5404a94bc5f314641046f4f06dfcb822543",
      "transactionType": "CALL",
      "contractName": "Proxy",
      "contractAddress": "0x952c430dcc00f623708d1cbbece3a6f5741b1384",
      "function": null,
      "arguments": null,
      "transaction": {
        "from": "0x235a2ac113014f9dcb8aba6577f20290832ddefd",
        "to": "0x952c430dcc00f623708d1cbbece3a6f5741b1384",
        "gas": "0x316e0",
        "value": "0x0",
        "input": "0x011aa7ce0000000000000000000000003db20aefcd234465c981b87da025711c91add2c3000000000000000000000000c3adc5347663c4fb93ad5029b6382a9f7fe73b05",
        "nonce": "0x7d9",
        "chainId": "0x138d4"
      },
      "additionalContracts": [],
      "isFixedGasLimit": false
    }
  ],
  "receipts": [
    {
      "status": "0x1",
      "cumulativeGasUsed": "0x6ff309",
      "logs": [
        {
          "address": "0x93cefc4f32abeae2df23bb8d74a8fa2ccacdeb4b",
          "topics": [
            "0xc7f505b2f371ae2175ee4913f4499e1f2633a7b5936321eed1cdaeb6115181d2"
          ],
          "data": "0x000000000000000000000000000000000000000000000000ffffffffffffffff",
          "blockHash": "0x729804277925a2a964f0dfed5fc3d7a573992e6d6d87e62dc74c9a790a37c653",
          "blockNumber": "0x8e1414",
          "blockTimestamp": "0x67861f68",
          "transactionHash": "0x205947f319c7c10475b7c4f3eb1de025267262fe711cfc3d9abd05eb5095abfc",
          "transactionIndex": "0x2e",
          "logIndex": "0x99",
          "removed": false
        }
      ],
      "logsBloom": "0x00000000000000000000000000000000000000000000000000000000000000000000000000000000000000000000000000000000000000000000000000000000000000000000000000000000000000004000000000000000000000000000000000000000000000000000000000000000000000000000000000000000000000000000000000000000000800000000000000000000000080000000000000000000000000000000000000000000004000000000000000000000000000000000000000000000000000000000000000000000000000000004000000000000000000000000000000000000000000000000000000100000000000000000000000000000",
      "type": "0x2",
      "transactionHash": "0x205947f319c7c10475b7c4f3eb1de025267262fe711cfc3d9abd05eb5095abfc",
      "transactionIndex": "0x2e",
      "blockHash": "0x729804277925a2a964f0dfed5fc3d7a573992e6d6d87e62dc74c9a790a37c653",
      "blockNumber": "0x8e1414",
      "gasUsed": "0x2764ca",
      "effectiveGasPrice": "0x1573960fce",
      "from": "0x235a2ac113014f9dcb8aba6577f20290832ddefd",
      "to": null,
      "contractAddress": "0x93cefc4f32abeae2df23bb8d74a8fa2ccacdeb4b"
    },
    {
      "status": "0x1",
      "cumulativeGasUsed": "0x7b3a26",
      "logs": [
        {
          "address": "0x952c430dcc00f623708d1cbbece3a6f5741b1384",
          "topics": [
            "0xbc7cd75a20ee27fd9adebab32041f755214dbc6bffa90cc0225b39da2e5c2d3b",
            "0x00000000000000000000000093cefc4f32abeae2df23bb8d74a8fa2ccacdeb4b"
          ],
          "data": "0x",
          "blockHash": "0x729804277925a2a964f0dfed5fc3d7a573992e6d6d87e62dc74c9a790a37c653",
          "blockNumber": "0x8e1414",
          "blockTimestamp": "0x67861f68",
          "transactionHash": "0x440881f128438b66dcfdb3c5a4029bea30f53415cd1d2d5eb394e988fe69ec62",
          "transactionIndex": "0x2f",
          "logIndex": "0x9a",
          "removed": false
        },
        {
          "address": "0x952c430dcc00f623708d1cbbece3a6f5741b1384",
          "topics": [
            "0x8be0079c531659141344cd1fd0a4f28419497f9722a3daafe3b4186f6b6457e0",
            "0x0000000000000000000000000000000000000000000000000000000000000000",
            "0x000000000000000000000000235a2ac113014f9dcb8aba6577f20290832ddefd"
          ],
          "data": "0x",
          "blockHash": "0x729804277925a2a964f0dfed5fc3d7a573992e6d6d87e62dc74c9a790a37c653",
          "blockNumber": "0x8e1414",
          "blockTimestamp": "0x67861f68",
          "transactionHash": "0x440881f128438b66dcfdb3c5a4029bea30f53415cd1d2d5eb394e988fe69ec62",
          "transactionIndex": "0x2f",
          "logIndex": "0x9b",
          "removed": false
        },
        {
          "address": "0x952c430dcc00f623708d1cbbece3a6f5741b1384",
          "topics": [
            "0x2f8788117e7eff1d82e926ec794901d17c78024a50270940304540a733656f0d",
            "0x0000000000000000000000000000000000000000000000000000000000000000",
            "0x000000000000000000000000235a2ac113014f9dcb8aba6577f20290832ddefd",
            "0x000000000000000000000000235a2ac113014f9dcb8aba6577f20290832ddefd"
          ],
          "data": "0x",
          "blockHash": "0x729804277925a2a964f0dfed5fc3d7a573992e6d6d87e62dc74c9a790a37c653",
          "blockNumber": "0x8e1414",
          "blockTimestamp": "0x67861f68",
          "transactionHash": "0x440881f128438b66dcfdb3c5a4029bea30f53415cd1d2d5eb394e988fe69ec62",
          "transactionIndex": "0x2f",
          "logIndex": "0x9c",
          "removed": false
        },
        {
          "address": "0x952c430dcc00f623708d1cbbece3a6f5741b1384",
          "topics": [
            "0xc7f505b2f371ae2175ee4913f4499e1f2633a7b5936321eed1cdaeb6115181d2"
          ],
          "data": "0x0000000000000000000000000000000000000000000000000000000000000001",
          "blockHash": "0x729804277925a2a964f0dfed5fc3d7a573992e6d6d87e62dc74c9a790a37c653",
          "blockNumber": "0x8e1414",
          "blockTimestamp": "0x67861f68",
          "transactionHash": "0x440881f128438b66dcfdb3c5a4029bea30f53415cd1d2d5eb394e988fe69ec62",
          "transactionIndex": "0x2f",
          "logIndex": "0x9d",
          "removed": false
        },
        {
          "address": "0x68ba950cdb521c90719d279e20ef2bdc3c95dc3c",
          "topics": [
            "0x8be0079c531659141344cd1fd0a4f28419497f9722a3daafe3b4186f6b6457e0",
            "0x0000000000000000000000000000000000000000000000000000000000000000",
            "0x000000000000000000000000d208203a7a54ffa823e9b0061a21260ed38ece6c"
          ],
          "data": "0x",
          "blockHash": "0x729804277925a2a964f0dfed5fc3d7a573992e6d6d87e62dc74c9a790a37c653",
          "blockNumber": "0x8e1414",
          "blockTimestamp": "0x67861f68",
          "transactionHash": "0x440881f128438b66dcfdb3c5a4029bea30f53415cd1d2d5eb394e988fe69ec62",
          "transactionIndex": "0x2f",
          "logIndex": "0x9e",
          "removed": false
        },
        {
          "address": "0x952c430dcc00f623708d1cbbece3a6f5741b1384",
          "topics": [
            "0x7e644d79422f17c01e4894b5f4f588d331ebfa28653d42ae832dc59e38c9798f"
          ],
          "data": "0x000000000000000000000000000000000000000000000000000000000000000000000000000000000000000068ba950cdb521c90719d279e20ef2bdc3c95dc3c",
          "blockHash": "0x729804277925a2a964f0dfed5fc3d7a573992e6d6d87e62dc74c9a790a37c653",
          "blockNumber": "0x8e1414",
          "blockTimestamp": "0x67861f68",
          "transactionHash": "0x440881f128438b66dcfdb3c5a4029bea30f53415cd1d2d5eb394e988fe69ec62",
          "transactionIndex": "0x2f",
          "logIndex": "0x9f",
          "removed": false
        }
      ],
      "logsBloom": "0x00000004010000000000000000000000400000000000000000800000000000000000000000000000002000000000000000040000000000000000000002000000100000000000000800000000000002000001000000000000100000000000000000000000030000000000000000000800000000800000000000000000000000400000000000000040000800000000000000000000000080000000000000800000000000000000000200008000000000000000000000000000001000000040100000000020000008000000000000000000000000004404000100000000000020000000000000000000000000000000000000000000000000000000000000000000",
      "type": "0x2",
      "transactionHash": "0x440881f128438b66dcfdb3c5a4029bea30f53415cd1d2d5eb394e988fe69ec62",
      "transactionIndex": "0x2f",
      "blockHash": "0x729804277925a2a964f0dfed5fc3d7a573992e6d6d87e62dc74c9a790a37c653",
      "blockNumber": "0x8e1414",
      "gasUsed": "0xb471d",
      "effectiveGasPrice": "0x1573960fce",
      "from": "0x235a2ac113014f9dcb8aba6577f20290832ddefd",
      "to": null,
      "contractAddress": "0x952c430dcc00f623708d1cbbece3a6f5741b1384"
    },
    {
      "status": "0x1",
      "cumulativeGasUsed": "0x7bfcfe",
      "logs": [
        {
          "address": "0x8e826703b6d471732415abd4a1e724a3bf451511",
          "topics": [
            "0x8be0079c531659141344cd1fd0a4f28419497f9722a3daafe3b4186f6b6457e0",
            "0x0000000000000000000000006df961030ef9c2e2d79af42603e4ccc32b41fd64",
            "0x000000000000000000000000952c430dcc00f623708d1cbbece3a6f5741b1384"
          ],
          "data": "0x",
          "blockHash": "0x729804277925a2a964f0dfed5fc3d7a573992e6d6d87e62dc74c9a790a37c653",
          "blockNumber": "0x8e1414",
          "blockTimestamp": "0x67861f68",
          "transactionHash": "0x0e02d34d2a58699b96bcff6d3d35845b8dc939acf3dbc81946e3e50a835f7edb",
          "transactionIndex": "0x30",
          "logIndex": "0xa0",
          "removed": false
        }
      ],
      "logsBloom": "0x00000040000000000040000000000000000000000000000000800000000000000000000000000000000000000000000000000000000000000000000000000000000000000000040000000000000000000001000000000000000000000000000000000000000000000000000000000000000000000000000000000000000080400000000000000000000000000000000000000000000000000800000000000000000000000000000000000000000000000000040000000000000000000000000000000000000000000080000000000000000000000000000000000000000000000000800000000000000000000000008000000000000000000000000000000000",
      "type": "0x2",
      "transactionHash": "0x0e02d34d2a58699b96bcff6d3d35845b8dc939acf3dbc81946e3e50a835f7edb",
      "transactionIndex": "0x30",
      "blockHash": "0x729804277925a2a964f0dfed5fc3d7a573992e6d6d87e62dc74c9a790a37c653",
      "blockNumber": "0x8e1414",
      "gasUsed": "0xc2d8",
      "effectiveGasPrice": "0x1573960fce",
      "from": "0x235a2ac113014f9dcb8aba6577f20290832ddefd",
      "to": "0x6df961030ef9c2e2d79af42603e4ccc32b41fd64",
      "contractAddress": null
    },
    {
      "status": "0x1",
      "cumulativeGasUsed": "0x7cbfd6",
      "logs": [
        {
          "address": "0x33c608b9e7ae1877dcb665bd3d2d3bb327b01156",
          "topics": [
            "0x8be0079c531659141344cd1fd0a4f28419497f9722a3daafe3b4186f6b6457e0",
            "0x0000000000000000000000006df961030ef9c2e2d79af42603e4ccc32b41fd64",
            "0x000000000000000000000000952c430dcc00f623708d1cbbece3a6f5741b1384"
          ],
          "data": "0x",
          "blockHash": "0x729804277925a2a964f0dfed5fc3d7a573992e6d6d87e62dc74c9a790a37c653",
          "blockNumber": "0x8e1414",
          "blockTimestamp": "0x67861f68",
          "transactionHash": "0x0966973387d9937a9394c424021b6e606e9d611b4c11191d06203fccfb4d5923",
          "transactionIndex": "0x31",
          "logIndex": "0xa1",
          "removed": false
        }
      ],
      "logsBloom": "0x00000000000000000040000000000000000000000001000000800000000000000000000000000000000000000020000000000000000000000000000000000000000000000000040000000000000000000001000000000000000000000000000000000000000000000000000000000000000000000000000000000001000080400000000000000000000000000000000000000000000000000800000000000000000000000000000000000000000000000000000000000000000000000000000000000000000000000080000000000000000000000000000000000000000000000000800000000000000000000000000000000000000000000000000000000000",
      "type": "0x2",
      "transactionHash": "0x0966973387d9937a9394c424021b6e606e9d611b4c11191d06203fccfb4d5923",
      "transactionIndex": "0x31",
      "blockHash": "0x729804277925a2a964f0dfed5fc3d7a573992e6d6d87e62dc74c9a790a37c653",
      "blockNumber": "0x8e1414",
      "gasUsed": "0xc2d8",
      "effectiveGasPrice": "0x1573960fce",
      "from": "0x235a2ac113014f9dcb8aba6577f20290832ddefd",
      "to": "0x6df961030ef9c2e2d79af42603e4ccc32b41fd64",
      "contractAddress": null
    },
    {
      "status": "0x1",
      "cumulativeGasUsed": "0x7d82ae",
      "logs": [
        {
          "address": "0x8520b4ed7e7e54343ade583e6a7864718535eca9",
          "topics": [
            "0x8be0079c531659141344cd1fd0a4f28419497f9722a3daafe3b4186f6b6457e0",
            "0x0000000000000000000000006df961030ef9c2e2d79af42603e4ccc32b41fd64",
            "0x000000000000000000000000952c430dcc00f623708d1cbbece3a6f5741b1384"
          ],
          "data": "0x",
          "blockHash": "0x729804277925a2a964f0dfed5fc3d7a573992e6d6d87e62dc74c9a790a37c653",
          "blockNumber": "0x8e1414",
          "blockTimestamp": "0x67861f68",
          "transactionHash": "0xfb24be5bf07b298adbec5ba4fb6250b828730168962cc09c906b9b5d47b5bd6d",
          "transactionIndex": "0x32",
          "logIndex": "0xa2",
          "removed": false
        }
      ],
      "logsBloom": "0x00000000000000000040000000000000000000000000000000800000000000000000000020000000000000000000000000000000000000000000000000000000000000040000040000000000000000000001000000000000000000000000000000000000000000000000000000000000000000008000000000000000000080400000000000000000000000000000000000000000000000000800000000000000000000000000000000000000000000000000000000000000000000000000000000000000000000000080000000000000000000000000000000000000000000000000800000000000000000000000000000000000000000000000000000000000",
      "type": "0x2",
      "transactionHash": "0xfb24be5bf07b298adbec5ba4fb6250b828730168962cc09c906b9b5d47b5bd6d",
      "transactionIndex": "0x32",
      "blockHash": "0x729804277925a2a964f0dfed5fc3d7a573992e6d6d87e62dc74c9a790a37c653",
      "blockNumber": "0x8e1414",
      "gasUsed": "0xc2d8",
      "effectiveGasPrice": "0x1573960fce",
      "from": "0x235a2ac113014f9dcb8aba6577f20290832ddefd",
      "to": "0x6df961030ef9c2e2d79af42603e4ccc32b41fd64",
      "contractAddress": null
    },
    {
      "status": "0x1",
      "cumulativeGasUsed": "0x7e4586",
      "logs": [
        {
          "address": "0x39da60365de955d03c6c1ab7b80e8a4c458fa87e",
          "topics": [
            "0x8be0079c531659141344cd1fd0a4f28419497f9722a3daafe3b4186f6b6457e0",
            "0x0000000000000000000000006df961030ef9c2e2d79af42603e4ccc32b41fd64",
            "0x000000000000000000000000952c430dcc00f623708d1cbbece3a6f5741b1384"
          ],
          "data": "0x",
          "blockHash": "0x729804277925a2a964f0dfed5fc3d7a573992e6d6d87e62dc74c9a790a37c653",
          "blockNumber": "0x8e1414",
          "blockTimestamp": "0x67861f68",
          "transactionHash": "0xbd2af66a9fa40f4806b3df27842fe1135bce9e52aa4f6004e71621a474edb6f8",
          "transactionIndex": "0x33",
          "logIndex": "0xa3",
          "removed": false
        }
      ],
      "logsBloom": "0x00000000000400000040000000000000200000000000000000800000000000000000000000000000000000000000000000000000000000000000000020000000000000000000040000000000000000000001000000000000000000000000000000000000000000000000000000000000000000000000000000000000000080400000000000000000000000000000000000000000000000000800000000000000000000000000000000000000000000000000000000000000000000000000000000000000000000000080000000000000000000000000000000000000000000000000800000000000000000000000000000000000000000000000000000000000",
      "type": "0x2",
      "transactionHash": "0xbd2af66a9fa40f4806b3df27842fe1135bce9e52aa4f6004e71621a474edb6f8",
      "transactionIndex": "0x33",
      "blockHash": "0x729804277925a2a964f0dfed5fc3d7a573992e6d6d87e62dc74c9a790a37c653",
      "blockNumber": "0x8e1414",
      "gasUsed": "0xc2d8",
      "effectiveGasPrice": "0x1573960fce",
      "from": "0x235a2ac113014f9dcb8aba6577f20290832ddefd",
      "to": "0x6df961030ef9c2e2d79af42603e4ccc32b41fd64",
      "contractAddress": null
    },
    {
      "status": "0x1",
      "cumulativeGasUsed": "0x7f0852",
      "logs": [
        {
          "address": "0xb468a7ac04db7b07d8d2a8dec3e6008397ec3e4d",
          "topics": [
            "0x8be0079c531659141344cd1fd0a4f28419497f9722a3daafe3b4186f6b6457e0",
            "0x0000000000000000000000006df961030ef9c2e2d79af42603e4ccc32b41fd64",
            "0x000000000000000000000000952c430dcc00f623708d1cbbece3a6f5741b1384"
          ],
          "data": "0x",
          "blockHash": "0x729804277925a2a964f0dfed5fc3d7a573992e6d6d87e62dc74c9a790a37c653",
          "blockNumber": "0x8e1414",
          "blockTimestamp": "0x67861f68",
          "transactionHash": "0xbe4d9f3f0c012551b5e46857a0f07ecab1cc2690a36b08de677bbed5de208e17",
          "transactionIndex": "0x34",
          "logIndex": "0xa4",
          "removed": false
        }
      ],
      "logsBloom": "0x00000000000000000040000000000000000000000000000000800000000000000000000000000000000000000000000000000000000000000000000000000000000000000000040000000000000000000001000000000000000000000000000000000000000000000000000000000000000000000000000000000000000080400000000000000000000000000000000000004000000000000800000000000000000000000000000000000000000000000000000000000000000000000000000000020000000000000080000000000000000000000000000000000000000000000000800000000000000080000000000000000000000000000000000000000000",
      "type": "0x2",
      "transactionHash": "0xbe4d9f3f0c012551b5e46857a0f07ecab1cc2690a36b08de677bbed5de208e17",
      "transactionIndex": "0x34",
      "blockHash": "0x729804277925a2a964f0dfed5fc3d7a573992e6d6d87e62dc74c9a790a37c653",
      "blockNumber": "0x8e1414",
      "gasUsed": "0xc2cc",
      "effectiveGasPrice": "0x1573960fce",
      "from": "0x235a2ac113014f9dcb8aba6577f20290832ddefd",
      "to": "0x6df961030ef9c2e2d79af42603e4ccc32b41fd64",
      "contractAddress": null
    },
    {
      "status": "0x1",
      "cumulativeGasUsed": "0x7fcb2a",
      "logs": [
        {
          "address": "0xc3adc5347663c4fb93ad5029b6382a9f7fe73b05",
          "topics": [
            "0x8be0079c531659141344cd1fd0a4f28419497f9722a3daafe3b4186f6b6457e0",
            "0x0000000000000000000000006df961030ef9c2e2d79af42603e4ccc32b41fd64",
            "0x000000000000000000000000952c430dcc00f623708d1cbbece3a6f5741b1384"
          ],
          "data": "0x",
          "blockHash": "0x729804277925a2a964f0dfed5fc3d7a573992e6d6d87e62dc74c9a790a37c653",
          "blockNumber": "0x8e1414",
          "blockTimestamp": "0x67861f68",
          "transactionHash": "0x44b96c9a28a9104fc125b70ae4e5e2630a05c997fcd63dea0ae284d6bd37fe06",
          "transactionIndex": "0x35",
          "logIndex": "0xa5",
          "removed": false
        }
      ],
      "logsBloom": "0x00000000000000000040000000000000000000000000000000800000000000000000000000000000000000000000000000000000000000000000000000000000000000400000040000000000000000000001000000000000000000000000000000000000000000000000000000000000000000000000000000000000000080400000000000000000000000000000000000000000000000000800000800000000000200000000000000000000000000000000000000000000000000000000000000000000000000000080000000000000000000000000000000000000000000000000800000000000000000000000000000000000000000000000000000000000",
      "type": "0x2",
      "transactionHash": "0x44b96c9a28a9104fc125b70ae4e5e2630a05c997fcd63dea0ae284d6bd37fe06",
      "transactionIndex": "0x35",
      "blockHash": "0x729804277925a2a964f0dfed5fc3d7a573992e6d6d87e62dc74c9a790a37c653",
      "blockNumber": "0x8e1414",
      "gasUsed": "0xc2d8",
      "effectiveGasPrice": "0x1573960fce",
      "from": "0x235a2ac113014f9dcb8aba6577f20290832ddefd",
      "to": "0x6df961030ef9c2e2d79af42603e4ccc32b41fd64",
      "contractAddress": null
    },
    {
      "status": "0x1",
      "cumulativeGasUsed": "0x1718fbe",
      "logs": [],
      "logsBloom": "0x00000000000000000000000000000000000000000000000000000000000000000000000000000000000000000000000000000000000000000000000000000000000000000000000000000000000000000000000000000000000000000000000000000000000000000000000000000000000000000000000000000000000000000000000000000000000000000000000000000000000000000000000000000000000000000000000000000000000000000000000000000000000000000000000000000000000000000000000000000000000000000000000000000000000000000000000000000000000000000000000000000000000000000000000000000000",
      "type": "0x2",
      "transactionHash": "0x3369613dca6c1859a1ba8cfd533a7a72599d31939d1b64affb2a807549fbae74",
      "transactionIndex": "0xa5",
      "blockHash": "0x81d63c340c334716642829139c3800c7c5fed6d87fa4b90b5c48d64c47e0375a",
      "blockNumber": "0x8e155c",
      "gasUsed": "0x2d479",
      "effectiveGasPrice": "0x1529fa07ab",
      "from": "0x235a2ac113014f9dcb8aba6577f20290832ddefd",
      "to": "0x952c430dcc00f623708d1cbbece3a6f5741b1384",
      "contractAddress": null
    },
    {
      "status": "0x1",
      "cumulativeGasUsed": "0x173cc6d",
      "logs": [],
      "logsBloom": "0x00000000000000000000000000000000000000000000000000000000000000000000000000000000000000000000000000000000000000000000000000000000000000000000000000000000000000000000000000000000000000000000000000000000000000000000000000000000000000000000000000000000000000000000000000000000000000000000000000000000000000000000000000000000000000000000000000000000000000000000000000000000000000000000000000000000000000000000000000000000000000000000000000000000000000000000000000000000000000000000000000000000000000000000000000000000",
      "type": "0x2",
      "transactionHash": "0x062a4bd2ccebd361f3c6f12df845566baf30e844b6900c6894a942bb53927e8a",
      "transactionIndex": "0xa6",
      "blockHash": "0x81d63c340c334716642829139c3800c7c5fed6d87fa4b90b5c48d64c47e0375a",
      "blockNumber": "0x8e155c",
      "gasUsed": "0x23caf",
      "effectiveGasPrice": "0x1529fa07ab",
      "from": "0x235a2ac113014f9dcb8aba6577f20290832ddefd",
      "to": "0x952c430dcc00f623708d1cbbece3a6f5741b1384",
      "contractAddress": null
    },
    {
      "status": "0x1",
      "cumulativeGasUsed": "0x17608b5",
      "logs": [],
      "logsBloom": "0x00000000000000000000000000000000000000000000000000000000000000000000000000000000000000000000000000000000000000000000000000000000000000000000000000000000000000000000000000000000000000000000000000000000000000000000000000000000000000000000000000000000000000000000000000000000000000000000000000000000000000000000000000000000000000000000000000000000000000000000000000000000000000000000000000000000000000000000000000000000000000000000000000000000000000000000000000000000000000000000000000000000000000000000000000000000",
      "type": "0x2",
      "transactionHash": "0x1f4edc27dea70546ba6ace674666511e9a9cd48441e7c0f28df2928d1bc2092d",
      "transactionIndex": "0xa7",
      "blockHash": "0x81d63c340c334716642829139c3800c7c5fed6d87fa4b90b5c48d64c47e0375a",
      "blockNumber": "0x8e155c",
      "gasUsed": "0x23c48",
      "effectiveGasPrice": "0x1529fa07ab",
      "from": "0x235a2ac113014f9dcb8aba6577f20290832ddefd",
      "to": "0x952c430dcc00f623708d1cbbece3a6f5741b1384",
      "contractAddress": null
    },
    {
      "status": "0x1",
      "cumulativeGasUsed": "0x178454a",
      "logs": [],
      "logsBloom": "0x00000000000000000000000000000000000000000000000000000000000000000000000000000000000000000000000000000000000000000000000000000000000000000000000000000000000000000000000000000000000000000000000000000000000000000000000000000000000000000000000000000000000000000000000000000000000000000000000000000000000000000000000000000000000000000000000000000000000000000000000000000000000000000000000000000000000000000000000000000000000000000000000000000000000000000000000000000000000000000000000000000000000000000000000000000000",
      "type": "0x2",
      "transactionHash": "0x86af41bdd6eb36b039f4c0518890224f5427a8de5490df37c7fca22b1c6cc777",
      "transactionIndex": "0xa8",
      "blockHash": "0x81d63c340c334716642829139c3800c7c5fed6d87fa4b90b5c48d64c47e0375a",
      "blockNumber": "0x8e155c",
      "gasUsed": "0x23c95",
      "effectiveGasPrice": "0x1529fa07ab",
      "from": "0x235a2ac113014f9dcb8aba6577f20290832ddefd",
      "to": "0x952c430dcc00f623708d1cbbece3a6f5741b1384",
      "contractAddress": null
    },
    {
      "status": "0x1",
      "cumulativeGasUsed": "0x17a81d3",
      "logs": [],
      "logsBloom": "0x00000000000000000000000000000000000000000000000000000000000000000000000000000000000000000000000000000000000000000000000000000000000000000000000000000000000000000000000000000000000000000000000000000000000000000000000000000000000000000000000000000000000000000000000000000000000000000000000000000000000000000000000000000000000000000000000000000000000000000000000000000000000000000000000000000000000000000000000000000000000000000000000000000000000000000000000000000000000000000000000000000000000000000000000000000000",
      "type": "0x2",
      "transactionHash": "0x0376a5430cae1809a6f84761ef2b3e2046f6e233a2f37f4eb88bdd71ec5fbdf7",
      "transactionIndex": "0xa9",
      "blockHash": "0x81d63c340c334716642829139c3800c7c5fed6d87fa4b90b5c48d64c47e0375a",
      "blockNumber": "0x8e155c",
      "gasUsed": "0x23c89",
      "effectiveGasPrice": "0x1529fa07ab",
      "from": "0x235a2ac113014f9dcb8aba6577f20290832ddefd",
      "to": "0x952c430dcc00f623708d1cbbece3a6f5741b1384",
      "contractAddress": null
    },
    {
      "status": "0x1",
      "cumulativeGasUsed": "0x17cbe68",
      "logs": [],
      "logsBloom": "0x00000000000000000000000000000000000000000000000000000000000000000000000000000000000000000000000000000000000000000000000000000000000000000000000000000000000000000000000000000000000000000000000000000000000000000000000000000000000000000000000000000000000000000000000000000000000000000000000000000000000000000000000000000000000000000000000000000000000000000000000000000000000000000000000000000000000000000000000000000000000000000000000000000000000000000000000000000000000000000000000000000000000000000000000000000000",
      "type": "0x2",
      "transactionHash": "0xdefe1ecc490304d3ee3c24323369b5404a94bc5f314641046f4f06dfcb822543",
      "transactionIndex": "0xaa",
      "blockHash": "0x81d63c340c334716642829139c3800c7c5fed6d87fa4b90b5c48d64c47e0375a",
      "blockNumber": "0x8e155c",
      "gasUsed": "0x23c95",
      "effectiveGasPrice": "0x1529fa07ab",
      "from": "0x235a2ac113014f9dcb8aba6577f20290832ddefd",
      "to": "0x952c430dcc00f623708d1cbbece3a6f5741b1384",
      "contractAddress": null
    }
  ],
  "libraries": [],
  "pending": [],
  "returns": {},
  "timestamp": 1736843893,
  "chain": 80084,
  "commit": "945276a"
}