{
  "transactions": [
    {
      "hash": "0x20735999cb370e855533b61de4d4f7fc3a54ca55befcf0f314eb7248c0fddfdd",
      "transactionType": "CREATE",
      "contractName": "FeedRegistry",
      "contractAddress": "0xfa157570d68683d1f92f8cea06b88dc1d8e7880e",
      "function": null,
      "arguments": null,
      "transaction": {
        "from": "0x235a2ac113014f9dcb8aba6577f20290832ddefd",
        "gas": "0x300f0d",
        "value": "0x0",
        "input": "0x6080604052348015600e575f5ffd5b5060156019565b60c9565b7ff0c57e16840df040f15088dc2f81fe391c3923bec73e23a9662efc9c229c6a00805468010000000000000000900460ff161560685760405163f92ee8a960e01b815260040160405180910390fd5b80546001600160401b039081161460c65780546001600160401b0319166001600160401b0390811782556040519081527fc7f505b2f371ae2175ee4913f4499e1f2633a7b5936321eed1cdaeb6115181d29060200160405180910390a15b50565b612a52806100d65f395ff3fe608060405234801561000f575f5ffd5b50600436106101d1575f3560e01c80638da5cb5b116100fe578063c4d66de81161009e578063d83bd3341161006e578063d83bd3341461047d578063db89070314610490578063f2fde38b146104a3578063f315df86146104b6575f5ffd5b8063c4d66de81461041c578063c76ece321461042f578063d547741f14610457578063d54c954b1461046a575f5ffd5b8063a63112e7116100d9578063a63112e7146103b6578063ac77f572146103d6578063b8e10ab3146103f6578063be62d72514610409575f5ffd5b80638da5cb5b1461036c57806391d148541461039c578063a217fddf146103af575f5ffd5b80632f2ff15d11610174578063607c12b511610144578063607c12b5146103415780636d86b47814610349578063715018a61461035157806389ad750314610359575f5ffd5b80632f2ff15d146102e157806330eca4fa146102f457806336568abe1461030757806354fd4d501461031a575f5ffd5b8063174de83b116101af578063174de83b146102525780632288368d14610272578063248a9ca3146102ad5780632b898c25146102ce575f5ffd5b8063011aa7ce146101d557806301ffc9a7146101ea5780630a6c790e14610212575b5f5ffd5b6101e86101e33660046124af565b6104c9565b005b6101fd6101f83660046124e6565b6106da565b60405190151581526020015b60405180910390f35b61023a610220366004612514565b60056020525f90815260409020546001600160a01b031681565b6040516001600160a01b039091168152602001610209565b6102656102603660046124af565b610710565b604051610209919061252f565b61028561028036600461257a565b610812565b604080516001600160a01b039485168152939092166020840152151590820152606001610209565b6102c06102bb36600461257a565b610856565b604051908152602001610209565b6101e86102dc3660046124af565b610876565b6101e86102ef366004612591565b610bd1565b6101e86103023660046125b4565b610bf3565b6101e8610315366004612591565b610e26565b60408051808201825260058152640312e302e360dc1b6020820152905161020991906125fc565b610265610e5e565b610265610ebd565b6101e8610f1b565b6101e8610367366004612645565b610f2e565b7f9016d09d72d40fdae2fd8ceac6b6234c7706214fd39c1cd1e609a0528c199300546001600160a01b031661023a565b6101fd6103aa366004612591565b610f44565b6102c05f81565b6103c96103c43660046124af565b610f7a565b604051610209919061278a565b6103e96103e4366004612514565b611052565b604051610209919061279c565b6101e86104043660046125b4565b611150565b6101e86104173660046127ff565b61134f565b6101e861042a366004612514565b611676565b61023a61043d366004612514565b60066020525f90815260409020546001600160a01b031681565b6101e8610465366004612591565b61178f565b6103c96104783660046124af565b6117ab565b6101e861048b36600461257a565b6118bc565b6101fd61049e3660046124af565b611c8b565b6101e86104b1366004612514565b611d00565b6101e86104c4366004612514565b611d42565b6104d1611f73565b6104da82611fce565b6001600160a01b0381166105015760405163e6c4247b60e01b815260040160405180910390fd5b6001600160a01b0382166105285760405163e6c4247b60e01b815260040160405180910390fd5b6001600160a01b038181165f90815260056020526040902054161561056057604051636d12062960e01b815260040160405180910390fd5b6001600160a01b038281165f908152600660205260409020541615610598576040516317759ec560e31b815260040160405180910390fd5b816001600160a01b0316816001600160a01b031663217a4b706040518163ffffffff1660e01b8152600401602060405180830381865afa1580156105de573d5f5f3e3d5ffd5b505050506040513d601f19601f820116820180604052508101906106029190612890565b6001600160a01b0316146106295760405163ef6f1f1560e01b815260040160405180910390fd5b5f8054600181810183557f290decd9548b62a8d60345a988386fc84ba6bc95484008f6362f93160ef3e56390910180546001600160a01b039485166001600160a01b0319918216811790925582548084019093557fb10e2d527612073b26eecdfd717e6a320cf44b4afac2b0732d9fcbe2b7fa0cf690920180549590941694821685179093558282526005602090815260408084208054841687179055948352600690529290208054909216179055565b5f6001600160e01b03198216637965db0b60e01b148061070a57506301ffc9a760e01b6001600160e01b03198316145b92915050565b6001600160a01b038083165f90815260066020526040902054606091168061074b576040516394e72c6b60e01b815260040160405180910390fd5b6001600160a01b038181165f90815260026020908152604080832087851684529091529020600101541661079257604051633917193960e01b815260040160405180910390fd5b6001600160a01b038082165f908152600260208181526040808420948816845293815291839020018054835181840281018401909452808452909183018282801561080457602002820191905f5260205f20905b81546001600160a01b031681526001909101906020018083116107e6575b505050505091505092915050565b60048181548110610821575f80fd5b5f918252602090912060039091020180546001909101546001600160a01b03918216925090811690600160a01b900460ff1683565b5f9081525f5160206129fd5f395f51905f52602052604090206001015490565b61087e611f73565b6001600160a01b038083165f9081526006602052604090205416806108b6576040516394e72c6b60e01b815260040160405180910390fd5b6001600160a01b038181165f908152600260208181526040808420878616855282528084208151608081018352815487168152600182015496871681850152600160a01b90960460ff161515868301529283018054825181850281018501909352808352949594606086019383018282801561095957602002820191905f5260205f20905b81546001600160a01b0316815260019091019060200180831161093b575b5050505050815250509050806040015161098657604051636b85d76f60e11b815260040160405180910390fd5b6001600160a01b038083165f908152600260208181526040808420948816845293905291812080546001600160a01b03191681556001810180546001600160a81b0319169055916109d9908301826123cd565b5050604080516001600160a01b03851660208201525f917f0caceb24b146885ae17af1b1d0d14fcb3bba2b85301c273d73d3f506e1287333910160408051601f1981840301815290829052610a3192916020016128c2565b6040516020818303038152906040529050610a4c8382612055565b6001600160a01b0383165f908152600360205260408120805490915b81811015610bc757866001600160a01b0316838281548110610a8c57610a8c6128e5565b5f9182526020909120600160039092020101546001600160a01b031603610bbf5782610ab96001846128f9565b81548110610ac957610ac96128e5565b905f5260205f209060030201838281548110610ae757610ae76128e5565b5f9182526020909120825460039092020180546001600160a01b03199081166001600160a01b039384161782556001808501805491840180549384169290951691821785555460ff600160a01b91829004161515026001600160a81b0319909216171790915560028083018054610b6192840191906123e8565b5090505082805480610b7557610b75612918565b5f8281526020812060035f199093019283020180546001600160a01b03191681556001810180546001600160a81b031916905590610bb660028301826123cd565b50509055610bc7565b600101610a68565b5050505050505050565b610bda82610856565b610be381612117565b610bed8383612121565b50505050565b610bfb611f73565b610c0481611fce565b6001600160a01b038084165f908152600660205260409020541680610c3c576040516394e72c6b60e01b815260040160405180910390fd5b6001600160a01b038181165f908152600260208181526040808420888616855282528084208151608081018352815487168152600182015496871681850152600160a01b90960460ff1615158683015292830180548251818502810185019093528083529495946060860193830182828015610cdf57602002820191905f5260205f20905b81546001600160a01b03168152600190910190602001808311610cc1575b50505050508152505090508060400151610d0c57604051636b85d76f60e11b815260040160405180910390fd5b6001600160a01b038316610d335760405163e6c4247b60e01b815260040160405180910390fd5b6001600160a01b038083165f9081526002602081815260408084209489168452939052918120909101905b8154811015610dbd57846001600160a01b0316828281548110610d8357610d836128e5565b5f918252602090912001546001600160a01b031603610db55760405163156e81c160e01b815260040160405180910390fd5b600101610d5e565b5080546001810182555f8281526020812090910180546001600160a01b0319166001600160a01b038781169182179092556040519092888316928a16917ff9db191d3792b8afaf5841efb4f9735e3167d63b05aecd33611fa471f011bab49190a4505050505050565b6001600160a01b0381163314610e4f5760405163334bd91960e11b815260040160405180910390fd5b610e5982826121c2565b505050565b60605f805480602002602001604051908101604052809291908181526020018280548015610eb357602002820191905f5260205f20905b81546001600160a01b03168152600190910190602001808311610e95575b5050505050905090565b60606001805480602002602001604051908101604052809291908181526020018280548015610eb357602002820191905f5260205f209081546001600160a01b03168152600190910190602001808311610e95575050505050905090565b610f23611f73565b610f2c5f61223b565b565b610f36611f73565b610f408282612055565b5050565b5f9182525f5160206129fd5f395f51905f52602090815260408084206001600160a01b0393909316845291905290205460ff1690565b604080516080810182525f80825260208201819052918101919091526060808201526001600160a01b038381165f90815260026020818152604080842087861685528252928390208351608081018552815486168152600182015495861681840152600160a01b90950460ff16151585850152918201805484518184028101840190955280855292936060860193909283018282801561104157602002820191905f5260205f20905b81546001600160a01b03168152600190910190602001808311611023575b505050505081525050905092915050565b6001600160a01b0381165f908152600360209081526040808320805482518185028101850190935280835260609492939192909184015b82821015611145575f848152602090819020604080516080810182526003860290920180546001600160a01b039081168452600182015490811684860152600160a01b900460ff161515838301526002810180548351818702810187019094528084529394919360608601939283018282801561112d57602002820191905f5260205f20905b81546001600160a01b0316815260019091019060200180831161110f575b50505050508152505081526020019060010190611089565b505050509050919050565b611158611f73565b6001600160a01b038084165f908152600660205260409020541680611190576040516394e72c6b60e01b815260040160405180910390fd5b6001600160a01b038181165f90815260026020908152604080832093871683529290522060010154600160a01b900460ff166111df57604051636b85d76f60e11b815260040160405180910390fd5b6001600160a01b038082165f9081526002602081815260408084209488168452939052918120909101905b81548110156112fd57836001600160a01b031682828154811061122f5761122f6128e5565b5f918252602090912001546001600160a01b0316036112f55781548290611258906001906128f9565b81548110611268576112686128e5565b905f5260205f20015f9054906101000a90046001600160a01b0316828281548110611295576112956128e5565b905f5260205f20015f6101000a8154816001600160a01b0302191690836001600160a01b03160217905550818054806112d0576112d0612918565b5f8281526020902081015f1990810180546001600160a01b03191690550190556112fd565b60010161120a565b50826001600160a01b0316846001600160a01b0316866001600160a01b03167f4d8e071328dfcff5c4f279128b8f4db38b041857318f4d8cca948a4378ffe1f560405160405180910390a45050505050565b6001600160a01b038085165f908152600660205260409020541680611387576040516394e72c6b60e01b815260040160405180910390fd5b611390846122ab565b6001600160a01b038181165f908152600260209081526040808320888516845290915290205416156113d5576040516328dbb26760e01b815260040160405180910390fd5b5f849050806001600160a01b031663feaf968c6040518163ffffffff1660e01b815260040160a060405180830381865afa158015611415573d5f5f3e3d5ffd5b505050506040513d601f19601f82011682018060405250810190611439919061294a565b505f93505050505b83811015611527575f85858381811061145c5761145c6128e5565b90506020020160208101906114719190612514565b6001600160a01b0316036114985760405163e6c4247b60e01b815260040160405180910390fd5b8484828181106114aa576114aa6128e5565b90506020020160208101906114bf9190612514565b6001600160a01b03166318160ddd6040518163ffffffff1660e01b8152600401602060405180830381865afa1580156114fa573d5f5f3e3d5ffd5b505050506040513d601f19601f8201168201806040525081019061151e9190612998565b50600101611441565b5060046040518060800160405280846001600160a01b03168152602001876001600160a01b031681526020015f151581526020018686808060200260200160405190810160405280939291908181526020018383602002808284375f920182905250939094525050835460018181018655948252602091829020845160039092020180546001600160a01b039283166001600160a01b031990911617815582850151958101805460408701511515600160a01b026001600160a81b031990911697909316969096179190911790945560608301518051939493611614935060028501929190910190612434565b505050846001600160a01b0316866001600160a01b0316336001600160a01b03167fffe49f0e12199dc72fb2bc88e28aa3912ec8e97d13576aaebe24a5b11551e3b687876040516116669291906129af565b60405180910390a4505050505050565b7ff0c57e16840df040f15088dc2f81fe391c3923bec73e23a9662efc9c229c6a008054600160401b810460ff16159067ffffffffffffffff165f811580156116bb5750825b90505f8267ffffffffffffffff1660011480156116d75750303b155b9050811580156116e5575080155b156117035760405163f92ee8a960e01b815260040160405180910390fd5b845467ffffffffffffffff19166001178555831561172d57845460ff60401b1916600160401b1785555b61173686612332565b6117405f87612121565b50831561178757845460ff60401b19168555604051600181527fc7f505b2f371ae2175ee4913f4499e1f2633a7b5936321eed1cdaeb6115181d29060200160405180910390a15b505050505050565b61179882610856565b6117a181612117565b610bed83836121c2565b604080516080810182525f80825260208201819052918101919091526060808201526001600160a01b038084165f908152600660205260409020541680611805576040516394e72c6b60e01b815260040160405180910390fd5b6001600160a01b038181165f90815260026020818152604080842088861685528252928390208351608081018552815486168152600182015495861681840152600160a01b90950460ff1615158585015291820180548451818402810184019095528085529293606086019390928301828280156118aa57602002820191905f5260205f20905b81546001600160a01b0316815260019091019060200180831161188c575b50505050508152505091505092915050565b6118c4611f73565b60045481106118e657604051633917193960e01b815260040160405180910390fd5b5f600482815481106118fa576118fa6128e5565b5f91825260209182902060408051608081018252600390930290910180546001600160a01b03908116845260018201549081168486015260ff600160a01b909104161515838301526002810180548351818702810187019094528084529394919360608601939283018282801561199857602002820191905f5260205f20905b81546001600160a01b0316815260019091019060200180831161197a575b5050509190925250505060208101519091506001600160a01b0381166119d157604051633917193960e01b815260040160405180910390fd5b6001604080840182815284516001600160a01b038082165f908152600560209081528582205460028083528784208a86168552835296909220895181549085166001600160a01b0319909116178155818a0151978101805496511515600160a01b026001600160a81b031990971698851698909817959095179096556060880151805193969190921694889493611a7093918501929190910190612434565b5050506001600160a01b038281165f908152600360208181526040808420805460018082018355918652948390208a519590940290930180546001600160a01b031916948616949094178455888201519284018054918a0151939095166001600160a81b031990911617600160a01b9215159290920291909117909255606086015180518793611b07926002850192910190612434565b5050604080516001600160a01b03861660208201525f92507f3817cb52b411ba6b992602ea533a928f30d1391a9c6e2e221d53a7ef07482f43910160408051601f1981840301815290829052611b6092916020016128c2565b6040516020818303038152906040529050611b7b8382612055565b60048681548110611b8e57611b8e6128e5565b5f9182526020822060039091020180546001600160a01b03191681556001810180546001600160a81b031916905590611bca60028301826123cd565b5050836001600160a01b0316826001600160a01b03167f9248b8612daaf0886d656b647e989378fea4de940d2217263536e28bb0e4c48560405160405180910390a36060850151515f5b81811015610bc75786606001518181518110611c3257611c326128e5565b60200260200101516001600160a01b0316866001600160a01b0316856001600160a01b03167ff9db191d3792b8afaf5841efb4f9735e3167d63b05aecd33611fa471f011bab460405160405180910390a4600101611c14565b6001600160a01b038083165f9081526006602052604081205490911680611cc5576040516394e72c6b60e01b815260040160405180910390fd5b6001600160a01b039081165f9081526002602090815260408083209386168352929052206001015460ff600160a01b90910416905092915050565b611d08611f73565b6001600160a01b038116611d3657604051631e4fbdf760e01b81525f60048201526024015b60405180910390fd5b611d3f8161223b565b50565b611d4a611f73565b6001600160a01b038082165f81815260056020818152604080842080549096168085526006835290842080546001600160a01b03199081169091559484529190528354909216909255815490915b81811015611e7e57836001600160a01b03165f8281548110611dbc57611dbc6128e5565b5f918252602090912001546001600160a01b031603611e76575f611de16001846128f9565b81548110611df157611df16128e5565b5f91825260208220015481546001600160a01b03909116919083908110611e1a57611e1a6128e5565b5f918252602082200180546001600160a01b0319166001600160a01b039390931692909217909155805480611e5157611e51612918565b5f8281526020902081015f1990810180546001600160a01b0319169055019055611e7e565b600101611d98565b50506001545f5b81811015610bed57826001600160a01b031660018281548110611eaa57611eaa6128e5565b5f918252602090912001546001600160a01b031603611f6b576001611ecf81846128f9565b81548110611edf57611edf6128e5565b5f91825260209091200154600180546001600160a01b039092169183908110611f0a57611f0a6128e5565b905f5260205f20015f6101000a8154816001600160a01b0302191690836001600160a01b031602179055506001805480611f4657611f46612918565b5f8281526020902081015f1990810180546001600160a01b0319169055019055610bed565b600101611e85565b33611fa57f9016d09d72d40fdae2fd8ceac6b6234c7706214fd39c1cd1e609a0528c199300546001600160a01b031690565b6001600160a01b031614610f2c5760405163118cdaa760e01b8152336004820152602401611d2d565b6001600160a01b038116611ff55760405163e6c4247b60e01b815260040160405180910390fd5b806001600160a01b03166318160ddd6040518163ffffffff1660e01b8152600401602060405180830381865afa158015612031573d5f5f3e3d5ffd5b505050506040513d601f19601f82011682018060405250810190610f409190612998565b6001600160a01b038281165f908152600560205260409020541661208c576040516394e72c6b60e01b815260040160405180910390fd5b5f5f836001600160a01b0316836040516120a691906129f1565b5f604051808303815f865af19150503d805f81146120df576040519150601f19603f3d011682016040523d82523d5f602084013e6120e4565b606091505b509150915081610bed578051156120fe5780518082602001fd5b604051638c76daeb60e01b815260040160405180910390fd5b611d3f8133612343565b5f5f5160206129fd5f395f51905f5261213a8484610f44565b6121b9575f848152602082815260408083206001600160a01b03871684529091529020805460ff1916600117905561216f3390565b6001600160a01b0316836001600160a01b0316857f2f8788117e7eff1d82e926ec794901d17c78024a50270940304540a733656f0d60405160405180910390a4600191505061070a565b5f91505061070a565b5f5f5160206129fd5f395f51905f526121db8484610f44565b156121b9575f848152602082815260408083206001600160a01b0387168085529252808320805460ff1916905551339287917ff6391f5c32d9c69d2a47ea670b442974b53935d1edc7fd64eb21e047a839171b9190a4600191505061070a565b7f9016d09d72d40fdae2fd8ceac6b6234c7706214fd39c1cd1e609a0528c19930080546001600160a01b031981166001600160a01b03848116918217845560405192169182907f8be0079c531659141344cd1fd0a4f28419497f9722a3daafe3b4186f6b6457e0905f90a3505050565b6001600160a01b0381166122d25760405163e6c4247b60e01b815260040160405180910390fd5b806001600160a01b031663feaf968c6040518163ffffffff1660e01b815260040160a060405180830381865afa15801561230e573d5f5f3e3d5ffd5b505050506040513d601f19601f82011682018060405250810190611787919061294a565b61233a61237c565b611d3f816123c5565b61234d8282610f44565b610f405760405163e2517d3f60e01b81526001600160a01b038216600482015260248101839052604401611d2d565b7ff0c57e16840df040f15088dc2f81fe391c3923bec73e23a9662efc9c229c6a0054600160401b900460ff16610f2c57604051631afcd79f60e31b815260040160405180910390fd5b611d0861237c565b5080545f8255905f5260205f2090810190611d3f9190612487565b828054828255905f5260205f20908101928215612424575f5260205f209182015b82811115612424578254825591600101919060010190612409565b50612430929150612487565b5090565b828054828255905f5260205f20908101928215612424579160200282015b8281111561242457825182546001600160a01b0319166001600160a01b03909116178255602090920191600190910190612452565b5b80821115612430575f8155600101612488565b6001600160a01b0381168114611d3f575f5ffd5b5f5f604083850312156124c0575f5ffd5b82356124cb8161249b565b915060208301356124db8161249b565b809150509250929050565b5f602082840312156124f6575f5ffd5b81356001600160e01b03198116811461250d575f5ffd5b9392505050565b5f60208284031215612524575f5ffd5b813561250d8161249b565b602080825282518282018190525f918401906040840190835b8181101561256f5783516001600160a01b0316835260209384019390920191600101612548565b509095945050505050565b5f6020828403121561258a575f5ffd5b5035919050565b5f5f604083850312156125a2575f5ffd5b8235915060208301356124db8161249b565b5f5f5f606084860312156125c6575f5ffd5b83356125d18161249b565b925060208401356125e18161249b565b915060408401356125f18161249b565b809150509250925092565b602081525f82518060208401528060208501604085015e5f604082850101526040601f19601f83011684010191505092915050565b634e487b7160e01b5f52604160045260245ffd5b5f5f60408385031215612656575f5ffd5b82356126618161249b565b9150602083013567ffffffffffffffff81111561267c575f5ffd5b8301601f8101851361268c575f5ffd5b803567ffffffffffffffff8111156126a6576126a6612631565b604051601f8201601f19908116603f0116810167ffffffffffffffff811182821017156126d5576126d5612631565b6040528181528282016020018710156126ec575f5ffd5b816020840160208301375f602083830101528093505050509250929050565b80516001600160a01b03908116835260208083015190911681840152604080830151151590840152606080830151608091850182905280519185018290525f920190829060a08601905b808310156127805783516001600160a01b031682526020938401936001939093019290910190612755565b5095945050505050565b602081525f61250d602083018461270b565b5f602082016020835280845180835260408501915060408160051b8601019250602086015f5b828110156127f357603f198786030184526127de85835161270b565b945060209384019391909101906001016127c2565b50929695505050505050565b5f5f5f5f60608587031215612812575f5ffd5b843561281d8161249b565b9350602085013561282d8161249b565b9250604085013567ffffffffffffffff811115612848575f5ffd5b8501601f81018713612858575f5ffd5b803567ffffffffffffffff81111561286e575f5ffd5b8760208260051b8401011115612882575f5ffd5b949793965060200194505050565b5f602082840312156128a0575f5ffd5b815161250d8161249b565b5f81518060208401855e5f93019283525090919050565b6001600160e01b0319831681525f6128dd60048301846128ab565b949350505050565b634e487b7160e01b5f52603260045260245ffd5b8181038181111561070a57634e487b7160e01b5f52601160045260245ffd5b634e487b7160e01b5f52603160045260245ffd5b805169ffffffffffffffffffff81168114612945575f5ffd5b919050565b5f5f5f5f5f60a0868803121561295e575f5ffd5b6129678661292c565b6020870151604088015160608901519297509095509350915061298c6080870161292c565b90509295509295909350565b5f602082840312156129a8575f5ffd5b5051919050565b602080825281018290525f8360408301825b858110156127805782356129d48161249b565b6001600160a01b03168252602092830192909101906001016129c1565b5f61250d82846128ab56fe02dd7bc7dec4dceedda775e58dd541e08a116c6c53815c0bd028192f7b626800a2646970667358221220a836ee8e5a3d467192321b7b8d943909034f9ff7bd41f24fc7af3f7468713cb764736f6c634300081c0033",
        "nonce": "0x7be",
        "chainId": "0x138d4"
      },
      "additionalContracts": [],
      "isFixedGasLimit": false
    },
    {
      "hash": "0x87bc8a13d8e090770be6d13354bc9184fe2806338c989518d85f378464cec9a1",
      "transactionType": "CREATE",
      "contractName": "Proxy",
      "contractAddress": "0x6df961030ef9c2e2d79af42603e4ccc32b41fd64",
      "function": null,
      "arguments": [
        "0xfa157570d68683d1f92f8CEa06B88dc1D8e7880E",
        "0xD208203a7A54fFA823E9B0061a21260Ed38EcE6C",
        "0xc4d66de8000000000000000000000000235a2ac113014f9dcb8aba6577f20290832ddefd"
      ],
      "transaction": {
        "from": "0x235a2ac113014f9dcb8aba6577f20290832ddefd",
        "gas": "0xea906",
        "value": "0x0",
        "input": "0x60a0604052604051610e37380380610e3783398101604081905261002291610370565b82828282816100318282610092565b50508160405161004090610334565b6001600160a01b039091168152602001604051809103905ff080158015610069573d5f5f3e3d5ffd5b506001600160a01b031660805261008761008260805190565b6100f0565b505050505050610457565b61009b8261015d565b6040516001600160a01b038316907fbc7cd75a20ee27fd9adebab32041f755214dbc6bffa90cc0225b39da2e5c2d3b905f90a28051156100e4576100df82826101db565b505050565b6100ec61024e565b5050565b7f7e644d79422f17c01e4894b5f4f588d331ebfa28653d42ae832dc59e38c9798f61012f5f516020610e175f395f51905f52546001600160a01b031690565b604080516001600160a01b03928316815291841660208301520160405180910390a161015a8161026f565b50565b806001600160a01b03163b5f0361019757604051634c9c8ce360e01b81526001600160a01b03821660048201526024015b60405180910390fd5b807f360894a13ba1a3210667c828492db98dca3e2076cc3735a920a3ca505d382bbc5b80546001600160a01b0319166001600160a01b039290921691909117905550565b60605f5f846001600160a01b0316846040516101f79190610441565b5f60405180830381855af49150503d805f811461022f576040519150601f19603f3d011682016040523d82523d5f602084013e610234565b606091505b5090925090506102458583836102ac565b95945050505050565b341561026d5760405163b398979f60e01b815260040160405180910390fd5b565b6001600160a01b03811661029857604051633173bdd160e11b81525f600482015260240161018e565b805f516020610e175f395f51905f526101ba565b6060826102c1576102bc8261030b565b610304565b81511580156102d857506001600160a01b0384163b155b1561030157604051639996b31560e01b81526001600160a01b038516600482015260240161018e565b50805b9392505050565b80511561031b5780518082602001fd5b60405163d6bda27560e01b815260040160405180910390fd5b6104e68061093183390190565b80516001600160a01b0381168114610357575f5ffd5b919050565b634e487b7160e01b5f52604160045260245ffd5b5f5f5f60608486031215610382575f5ffd5b61038b84610341565b925061039960208501610341565b60408501519092506001600160401b038111156103b4575f5ffd5b8401601f810186136103c4575f5ffd5b80516001600160401b038111156103dd576103dd61035c565b604051601f8201601f19908116603f011681016001600160401b038111828210171561040b5761040b61035c565b604052818152828201602001881015610422575f5ffd5b8160208401602083015e5f602083830101528093505050509250925092565b5f82518060208501845e5f920191825250919050565b6080516104bd6104745f395f818160350152607201526104bd5ff3fe60806040526004361061001d575f3560e01c80638b3240a014610027575b610025610070565b005b348015610032575f5ffd5b507f00000000000000000000000000000000000000000000000000000000000000006040516001600160a01b03909116815260200160405180910390f35b7f00000000000000000000000000000000000000000000000000000000000000006001600160a01b031633036100dc575f356001600160e01b03191663278f794360e11b146100d2576040516334ad5dbb60e21b815260040160405180910390fd5b6100da6100e9565b565b6100da610117565b905090565b5f806100f83660048184610365565b81019061010591906103a0565b915091506101138282610127565b5050565b6100da610122610181565b6101b3565b610130826101d1565b6040516001600160a01b038316907fbc7cd75a20ee27fd9adebab32041f755214dbc6bffa90cc0225b39da2e5c2d3b905f90a280511561017957610174828261024c565b505050565b6101136102be565b5f6100e47f360894a13ba1a3210667c828492db98dca3e2076cc3735a920a3ca505d382bbc546001600160a01b031690565b365f5f375f5f365f845af43d5f5f3e8080156101cd573d5ff35b3d5ffd5b806001600160a01b03163b5f0361020b57604051634c9c8ce360e01b81526001600160a01b03821660048201526024015b60405180910390fd5b7f360894a13ba1a3210667c828492db98dca3e2076cc3735a920a3ca505d382bbc80546001600160a01b0319166001600160a01b0392909216919091179055565b60605f5f846001600160a01b0316846040516102689190610471565b5f60405180830381855af49150503d805f81146102a0576040519150601f19603f3d011682016040523d82523d5f602084013e6102a5565b606091505b50915091506102b58583836102dd565b95945050505050565b34156100da5760405163b398979f60e01b815260040160405180910390fd5b6060826102f2576102ed8261033c565b610335565b815115801561030957506001600160a01b0384163b155b1561033257604051639996b31560e01b81526001600160a01b0385166004820152602401610202565b50805b9392505050565b80511561034c5780518082602001fd5b60405163d6bda27560e01b815260040160405180910390fd5b5f5f85851115610373575f5ffd5b8386111561037f575f5ffd5b5050820193919092039150565b634e487b7160e01b5f52604160045260245ffd5b5f5f604083850312156103b1575f5ffd5b82356001600160a01b03811681146103c7575f5ffd5b9150602083013567ffffffffffffffff8111156103e2575f5ffd5b8301601f810185136103f2575f5ffd5b803567ffffffffffffffff81111561040c5761040c61038c565b604051601f8201601f19908116603f0116810167ffffffffffffffff8111828210171561043b5761043b61038c565b604052818152828201602001871015610452575f5ffd5b816020840160208301375f602083830101528093505050509250929050565b5f82518060208501845e5f92019182525091905056fea2646970667358221220e1d41c0240698fbfc01d375b18b328bddb99ef819f03c230a6efbef2501325f764736f6c634300081c00336080604052348015600e575f5ffd5b506040516104e63803806104e6833981016040819052602b9160b4565b806001600160a01b038116605857604051631e4fbdf760e01b81525f600482015260240160405180910390fd5b605f816065565b505060df565b5f80546001600160a01b038381166001600160a01b0319831681178455604051919092169283917f8be0079c531659141344cd1fd0a4f28419497f9722a3daafe3b4186f6b6457e09190a35050565b5f6020828403121560c3575f5ffd5b81516001600160a01b038116811460d8575f5ffd5b9392505050565b6103fa806100ec5f395ff3fe608060405260043610610049575f3560e01c8063715018a61461004d5780638da5cb5b146100635780639623609d1461008e578063ad3cb1cc146100a1578063f2fde38b146100de575b5f5ffd5b348015610058575f5ffd5b506100616100fd565b005b34801561006e575f5ffd5b505f546040516001600160a01b0390911681526020015b60405180910390f35b61006161009c366004610260565b610110565b3480156100ac575f5ffd5b506100d1604051806040016040528060058152602001640352e302e360dc1b81525081565b6040516100859190610365565b3480156100e9575f5ffd5b506100616100f836600461037e565b61017b565b6101056101bd565b61010e5f6101e9565b565b6101186101bd565b60405163278f794360e11b81526001600160a01b03841690634f1ef2869034906101489086908690600401610399565b5f604051808303818588803b15801561015f575f5ffd5b505af1158015610171573d5f5f3e3d5ffd5b5050505050505050565b6101836101bd565b6001600160a01b0381166101b157604051631e4fbdf760e01b81525f60048201526024015b60405180910390fd5b6101ba816101e9565b50565b5f546001600160a01b0316331461010e5760405163118cdaa760e01b81523360048201526024016101a8565b5f80546001600160a01b038381166001600160a01b0319831681178455604051919092169283917f8be0079c531659141344cd1fd0a4f28419497f9722a3daafe3b4186f6b6457e09190a35050565b6001600160a01b03811681146101ba575f5ffd5b634e487b7160e01b5f52604160045260245ffd5b5f5f5f60608486031215610272575f5ffd5b833561027d81610238565b9250602084013561028d81610238565b9150604084013567ffffffffffffffff8111156102a8575f5ffd5b8401601f810186136102b8575f5ffd5b803567ffffffffffffffff8111156102d2576102d261024c565b604051601f8201601f19908116603f0116810167ffffffffffffffff811182821017156103015761030161024c565b604052818152828201602001881015610318575f5ffd5b816020840160208301375f602083830101528093505050509250925092565b5f81518084528060208401602086015e5f602082860101526020601f19601f83011685010191505092915050565b602081525f6103776020830184610337565b9392505050565b5f6020828403121561038e575f5ffd5b813561037781610238565b6001600160a01b03831681526040602082018190525f906103bc90830184610337565b94935050505056fea264697066735822122099f4840b60c21ae71b6900b64d45bfdab04e6b394f7dbc4ae190c4076cd4a8ff64736f6c634300081c0033b53127684a568b3173ae13b9f8a6016e243e63b6e8ee1178d6a717850b5d6103000000000000000000000000fa157570d68683d1f92f8cea06b88dc1d8e7880e000000000000000000000000d208203a7a54ffa823e9b0061a21260ed38ece6c00000000000000000000000000000000000000000000000000000000000000600000000000000000000000000000000000000000000000000000000000000024c4d66de8000000000000000000000000235a2ac113014f9dcb8aba6577f20290832ddefd00000000000000000000000000000000000000000000000000000000",
        "nonce": "0x7bf",
        "chainId": "0x138d4"
      },
      "additionalContracts": [
        {
          "transactionType": "CREATE",
          "address": "0x3551803af186dc58494872fc66ce90464814d400",
          "initCode": "0x6080604052348015600e575f5ffd5b506040516104e63803806104e6833981016040819052602b9160b4565b806001600160a01b038116605857604051631e4fbdf760e01b81525f600482015260240160405180910390fd5b605f816065565b505060df565b5f80546001600160a01b038381166001600160a01b0319831681178455604051919092169283917f8be0079c531659141344cd1fd0a4f28419497f9722a3daafe3b4186f6b6457e09190a35050565b5f6020828403121560c3575f5ffd5b81516001600160a01b038116811460d8575f5ffd5b9392505050565b6103fa806100ec5f395ff3fe608060405260043610610049575f3560e01c8063715018a61461004d5780638da5cb5b146100635780639623609d1461008e578063ad3cb1cc146100a1578063f2fde38b146100de575b5f5ffd5b348015610058575f5ffd5b506100616100fd565b005b34801561006e575f5ffd5b505f546040516001600160a01b0390911681526020015b60405180910390f35b61006161009c366004610260565b610110565b3480156100ac575f5ffd5b506100d1604051806040016040528060058152602001640352e302e360dc1b81525081565b6040516100859190610365565b3480156100e9575f5ffd5b506100616100f836600461037e565b61017b565b6101056101bd565b61010e5f6101e9565b565b6101186101bd565b60405163278f794360e11b81526001600160a01b03841690634f1ef2869034906101489086908690600401610399565b5f604051808303818588803b15801561015f575f5ffd5b505af1158015610171573d5f5f3e3d5ffd5b5050505050505050565b6101836101bd565b6001600160a01b0381166101b157604051631e4fbdf760e01b81525f60048201526024015b60405180910390fd5b6101ba816101e9565b50565b5f546001600160a01b0316331461010e5760405163118cdaa760e01b81523360048201526024016101a8565b5f80546001600160a01b038381166001600160a01b0319831681178455604051919092169283917f8be0079c531659141344cd1fd0a4f28419497f9722a3daafe3b4186f6b6457e09190a35050565b6001600160a01b03811681146101ba575f5ffd5b634e487b7160e01b5f52604160045260245ffd5b5f5f5f60608486031215610272575f5ffd5b833561027d81610238565b9250602084013561028d81610238565b9150604084013567ffffffffffffffff8111156102a8575f5ffd5b8401601f810186136102b8575f5ffd5b803567ffffffffffffffff8111156102d2576102d261024c565b604051601f8201601f19908116603f0116810167ffffffffffffffff811182821017156103015761030161024c565b604052818152828201602001881015610318575f5ffd5b816020840160208301375f602083830101528093505050509250925092565b5f81518084528060208401602086015e5f602082860101526020601f19601f83011685010191505092915050565b602081525f6103776020830184610337565b9392505050565b5f6020828403121561038e575f5ffd5b813561037781610238565b6001600160a01b03831681526040602082018190525f906103bc90830184610337565b94935050505056fea264697066735822122099f4840b60c21ae71b6900b64d45bfdab04e6b394f7dbc4ae190c4076cd4a8ff64736f6c634300081c0033000000000000000000000000d208203a7a54ffa823e9b0061a21260ed38ece6c"
        }
      ],
      "isFixedGasLimit": false
    },
    {
      "hash": "0x236c5964d3e4eee29f83f643f05685d97343a050ed83280131d63b604b5e1317",
      "transactionType": "CALL",
      "contractName": null,
      "contractAddress": "0x8e826703b6d471732415abd4a1e724a3bf451511",
      "function": "transferOwnership(address)",
      "arguments": [
        "0x6Df961030Ef9c2e2d79AF42603e4ccc32B41Fd64"
      ],
      "transaction": {
        "from": "0x235a2ac113014f9dcb8aba6577f20290832ddefd",
        "to": "0x8e826703b6d471732415abd4a1e724a3bf451511",
        "gas": "0xc23d",
        "value": "0x0",
        "input": "0xf2fde38b0000000000000000000000006df961030ef9c2e2d79af42603e4ccc32b41fd64",
        "nonce": "0x7c0",
        "chainId": "0x138d4"
      },
      "additionalContracts": [],
      "isFixedGasLimit": false
    },
    {
      "hash": "0x33c9c806f59388f4e968048ff6e9f2905879044ca4115580769056c72c3726aa",
      "transactionType": "CALL",
      "contractName": null,
      "contractAddress": "0x33c608b9e7ae1877dcb665bd3d2d3bb327b01156",
      "function": "transferOwnership(address)",
      "arguments": [
        "0x6Df961030Ef9c2e2d79AF42603e4ccc32B41Fd64"
      ],
      "transaction": {
        "from": "0x235a2ac113014f9dcb8aba6577f20290832ddefd",
        "to": "0x33c608b9e7ae1877dcb665bd3d2d3bb327b01156",
        "gas": "0xc23d",
        "value": "0x0",
        "input": "0xf2fde38b0000000000000000000000006df961030ef9c2e2d79af42603e4ccc32b41fd64",
        "nonce": "0x7c1",
        "chainId": "0x138d4"
      },
      "additionalContracts": [],
      "isFixedGasLimit": false
    },
    {
      "hash": "0xe0fbbe9eaf1dc1dbb70ae6759109a16e2d0561e04a257898f1eb419d5e1fc6b2",
      "transactionType": "CALL",
      "contractName": null,
      "contractAddress": "0x8520b4ed7e7e54343ade583e6a7864718535eca9",
      "function": "transferOwnership(address)",
      "arguments": [
        "0x6Df961030Ef9c2e2d79AF42603e4ccc32B41Fd64"
      ],
      "transaction": {
        "from": "0x235a2ac113014f9dcb8aba6577f20290832ddefd",
        "to": "0x8520b4ed7e7e54343ade583e6a7864718535eca9",
        "gas": "0xc23d",
        "value": "0x0",
        "input": "0xf2fde38b0000000000000000000000006df961030ef9c2e2d79af42603e4ccc32b41fd64",
        "nonce": "0x7c2",
        "chainId": "0x138d4"
      },
      "additionalContracts": [],
      "isFixedGasLimit": false
    },
    {
      "hash": "0x55434db1b24957cfc9fea5c69865bbe61f032ed038db9472132c400d14dde10f",
      "transactionType": "CALL",
      "contractName": null,
      "contractAddress": "0x39da60365de955d03c6c1ab7b80e8a4c458fa87e",
      "function": "transferOwnership(address)",
      "arguments": [
        "0x6Df961030Ef9c2e2d79AF42603e4ccc32B41Fd64"
      ],
      "transaction": {
        "from": "0x235a2ac113014f9dcb8aba6577f20290832ddefd",
        "to": "0x39da60365de955d03c6c1ab7b80e8a4c458fa87e",
        "gas": "0xc23d",
        "value": "0x0",
        "input": "0xf2fde38b0000000000000000000000006df961030ef9c2e2d79af42603e4ccc32b41fd64",
        "nonce": "0x7c3",
        "chainId": "0x138d4"
      },
      "additionalContracts": [],
      "isFixedGasLimit": false
    },
    {
      "hash": "0xec27ecebc2e45633e0e48c765f7d387b64209ded064668f00dbc7a4506c6467d",
      "transactionType": "CALL",
      "contractName": null,
      "contractAddress": "0xb468a7ac04db7b07d8d2a8dec3e6008397ec3e4d",
      "function": "transferOwnership(address)",
      "arguments": [
        "0x6Df961030Ef9c2e2d79AF42603e4ccc32B41Fd64"
      ],
      "transaction": {
        "from": "0x235a2ac113014f9dcb8aba6577f20290832ddefd",
        "to": "0xb468a7ac04db7b07d8d2a8dec3e6008397ec3e4d",
        "gas": "0xc23d",
        "value": "0x0",
        "input": "0xf2fde38b0000000000000000000000006df961030ef9c2e2d79af42603e4ccc32b41fd64",
        "nonce": "0x7c4",
        "chainId": "0x138d4"
      },
      "additionalContracts": [],
      "isFixedGasLimit": false
    },
    {
      "hash": "0xd2babc8e2501cd548ca46e53ae630215cd2ddc92beab4c561c2a33f616e17578",
      "transactionType": "CALL",
      "contractName": null,
      "contractAddress": "0xc3adc5347663c4fb93ad5029b6382a9f7fe73b05",
      "function": "transferOwnership(address)",
      "arguments": [
        "0x6Df961030Ef9c2e2d79AF42603e4ccc32B41Fd64"
      ],
      "transaction": {
        "from": "0x235a2ac113014f9dcb8aba6577f20290832ddefd",
        "to": "0xc3adc5347663c4fb93ad5029b6382a9f7fe73b05",
        "gas": "0xc23d",
        "value": "0x0",
        "input": "0xf2fde38b0000000000000000000000006df961030ef9c2e2d79af42603e4ccc32b41fd64",
        "nonce": "0x7c5",
        "chainId": "0x138d4"
      },
      "additionalContracts": [],
      "isFixedGasLimit": false
    },
    {
      "hash": "0x7958a1f2a969f6a30f13a7ce63e313b56aeea5457373e44b97ff52476af13b9e",
      "transactionType": "CALL",
      "contractName": "Proxy",
      "contractAddress": "0x6df961030ef9c2e2d79af42603e4ccc32b41fd64",
      "function": null,
      "arguments": null,
      "transaction": {
        "from": "0x235a2ac113014f9dcb8aba6577f20290832ddefd",
        "to": "0x6df961030ef9c2e2d79af42603e4ccc32b41fd64",
        "gas": "0x4238a",
        "value": "0x0",
        "input": "0x011aa7ce0000000000000000000000000e4aaf1351de4c0264c5c7056ef3777b41bd8e030000000000000000000000008e826703b6d471732415abd4a1e724a3bf451511",
        "nonce": "0x7c6",
        "chainId": "0x138d4"
      },
      "additionalContracts": [],
      "isFixedGasLimit": false
    },
    {
      "hash": "0x8ac128f3add51e3c369632f0766aad5e1736162da2d2c52726685fb51930d715",
      "transactionType": "CALL",
      "contractName": "Proxy",
      "contractAddress": "0x6df961030ef9c2e2d79af42603e4ccc32b41fd64",
      "function": null,
      "arguments": null,
      "transaction": {
        "from": "0x235a2ac113014f9dcb8aba6577f20290832ddefd",
        "to": "0x6df961030ef9c2e2d79af42603e4ccc32b41fd64",
        "gas": "0x31703",
        "value": "0x0",
        "input": "0x011aa7ce000000000000000000000000f5afcf50006944d17226978e594d4d25f4f92b4000000000000000000000000033c608b9e7ae1877dcb665bd3d2d3bb327b01156",
        "nonce": "0x7c7",
        "chainId": "0x138d4"
      },
      "additionalContracts": [],
      "isFixedGasLimit": false
    },
    {
      "hash": "0x01a40219d84890ecb12ab7f2a18e825d4c5e605bd5db2f09e9b9bd08070ec209",
      "transactionType": "CALL",
      "contractName": "Proxy",
      "contractAddress": "0x6df961030ef9c2e2d79af42603e4ccc32b41fd64",
      "function": null,
      "arguments": null,
      "transaction": {
        "from": "0x235a2ac113014f9dcb8aba6577f20290832ddefd",
        "to": "0x6df961030ef9c2e2d79af42603e4ccc32b41fd64",
        "gas": "0x31676",
        "value": "0x0",
        "input": "0x011aa7ce000000000000000000000000d6d83af58a19cd14ef3cf6fe848c9a4d21e5727c0000000000000000000000008520b4ed7e7e54343ade583e6a7864718535eca9",
        "nonce": "0x7c8",
        "chainId": "0x138d4"
      },
      "additionalContracts": [],
      "isFixedGasLimit": false
    },
    {
      "hash": "0xb7fc4437e000c9f4b196f6a29e391a963b7ab6adb38fb3cd75784471f64b154e",
      "transactionType": "CALL",
      "contractName": "Proxy",
      "contractAddress": "0x6df961030ef9c2e2d79af42603e4ccc32b41fd64",
      "function": null,
      "arguments": null,
      "transaction": {
        "from": "0x235a2ac113014f9dcb8aba6577f20290832ddefd",
        "to": "0x6df961030ef9c2e2d79af42603e4ccc32b41fd64",
        "gas": "0x316e0",
        "value": "0x0",
        "input": "0x011aa7ce000000000000000000000000501dbf23c2b004d751496adc073da3727c5fe80f00000000000000000000000039da60365de955d03c6c1ab7b80e8a4c458fa87e",
        "nonce": "0x7c9",
        "chainId": "0x138d4"
      },
      "additionalContracts": [],
      "isFixedGasLimit": false
    },
    {
      "hash": "0xe9747dd5fa2054fbe85a430046b1ae2dbed125b12f7d42fff44619e2d814fe96",
      "transactionType": "CALL",
      "contractName": "Proxy",
      "contractAddress": "0x6df961030ef9c2e2d79af42603e4ccc32b41fd64",
      "function": null,
      "arguments": null,
      "transaction": {
        "from": "0x235a2ac113014f9dcb8aba6577f20290832ddefd",
        "to": "0x6df961030ef9c2e2d79af42603e4ccc32b41fd64",
        "gas": "0x34555",
        "value": "0x0",
        "input": "0x011aa7ce000000000000000000000000482c38cd33e79a3e3c1cce792a72d41bafffd416000000000000000000000000b468a7ac04db7b07d8d2a8dec3e6008397ec3e4d",
        "nonce": "0x7ca",
        "chainId": "0x138d4"
      },
      "additionalContracts": [],
      "isFixedGasLimit": false
    },
    {
      "hash": "0xe8cb6bd6ff06455b252ca1092497cb5b77d8f1b7c2b55bd6ef34203e9b59acc5",
      "transactionType": "CALL",
      "contractName": "Proxy",
      "contractAddress": "0x6df961030ef9c2e2d79af42603e4ccc32b41fd64",
      "function": null,
      "arguments": null,
      "transaction": {
        "from": "0x235a2ac113014f9dcb8aba6577f20290832ddefd",
        "to": "0x6df961030ef9c2e2d79af42603e4ccc32b41fd64",
        "gas": "0x316e0",
        "value": "0x0",
        "input": "0x011aa7ce0000000000000000000000003db20aefcd234465c981b87da025711c91add2c3000000000000000000000000c3adc5347663c4fb93ad5029b6382a9f7fe73b05",
        "nonce": "0x7cb",
        "chainId": "0x138d4"
      },
      "additionalContracts": [],
      "isFixedGasLimit": false
    }
  ],
  "receipts": [
    {
      "status": "0x1",
      "cumulativeGasUsed": "0x3a8b66",
      "logs": [
        {
          "address": "0xfa157570d68683d1f92f8cea06b88dc1d8e7880e",
          "topics": [
            "0xc7f505b2f371ae2175ee4913f4499e1f2633a7b5936321eed1cdaeb6115181d2"
          ],
          "data": "0x000000000000000000000000000000000000000000000000ffffffffffffffff",
          "blockHash": "0xb4747007186bdb82b0f4b0b8c609cf753419f12a2e7b39229010ba01af7c2e30",
          "blockNumber": "0x8e0c7c",
          "blockTimestamp": "0x67860eba",
          "transactionHash": "0x20735999cb370e855533b61de4d4f7fc3a54ca55befcf0f314eb7248c0fddfdd",
          "transactionIndex": "0x7",
          "logIndex": "0xe",
          "removed": false
        }
      ],
      "logsBloom": "0x00000000000000000000000000000000000000000000000000000000000000000000000000000000000000000000080000000000000000000000000000000000000000000000000000000000000000000000000000000000000000000000000000000000000000000000000000000000000000000000000000002000000000000000000000000000000800000000000000000000000080000000000000000000000000000000000000000000000000000000000000000000000000000000000000000000000000000000000000000000000000000004000000000000000000000000000000000000000000000000000000000000000000000000008000000000",
      "type": "0x2",
      "transactionHash": "0x20735999cb370e855533b61de4d4f7fc3a54ca55befcf0f314eb7248c0fddfdd",
      "transactionIndex": "0x7",
      "blockHash": "0xb4747007186bdb82b0f4b0b8c609cf753419f12a2e7b39229010ba01af7c2e30",
      "blockNumber": "0x8e0c7c",
      "gasUsed": "0x24f7e3",
      "effectiveGasPrice": "0x18c3393161",
      "from": "0x235a2ac113014f9dcb8aba6577f20290832ddefd",
      "to": null,
      "contractAddress": "0xfa157570d68683d1f92f8cea06b88dc1d8e7880e"
    },
    {
      "status": "0x1",
      "cumulativeGasUsed": "0x45d257",
      "logs": [
        {
          "address": "0x6df961030ef9c2e2d79af42603e4ccc32b41fd64",
          "topics": [
            "0xbc7cd75a20ee27fd9adebab32041f755214dbc6bffa90cc0225b39da2e5c2d3b",
            "0x000000000000000000000000fa157570d68683d1f92f8cea06b88dc1d8e7880e"
          ],
          "data": "0x",
          "blockHash": "0xb4747007186bdb82b0f4b0b8c609cf753419f12a2e7b39229010ba01af7c2e30",
          "blockNumber": "0x8e0c7c",
          "blockTimestamp": "0x67860eba",
          "transactionHash": "0x87bc8a13d8e090770be6d13354bc9184fe2806338c989518d85f378464cec9a1",
          "transactionIndex": "0x8",
          "logIndex": "0xf",
          "removed": false
        },
        {
          "address": "0x6df961030ef9c2e2d79af42603e4ccc32b41fd64",
          "topics": [
            "0x8be0079c531659141344cd1fd0a4f28419497f9722a3daafe3b4186f6b6457e0",
            "0x0000000000000000000000000000000000000000000000000000000000000000",
            "0x000000000000000000000000235a2ac113014f9dcb8aba6577f20290832ddefd"
          ],
          "data": "0x",
          "blockHash": "0xb4747007186bdb82b0f4b0b8c609cf753419f12a2e7b39229010ba01af7c2e30",
          "blockNumber": "0x8e0c7c",
          "blockTimestamp": "0x67860eba",
          "transactionHash": "0x87bc8a13d8e090770be6d13354bc9184fe2806338c989518d85f378464cec9a1",
          "transactionIndex": "0x8",
          "logIndex": "0x10",
          "removed": false
        },
        {
          "address": "0x6df961030ef9c2e2d79af42603e4ccc32b41fd64",
          "topics": [
            "0x2f8788117e7eff1d82e926ec794901d17c78024a50270940304540a733656f0d",
            "0x0000000000000000000000000000000000000000000000000000000000000000",
            "0x000000000000000000000000235a2ac113014f9dcb8aba6577f20290832ddefd",
            "0x000000000000000000000000235a2ac113014f9dcb8aba6577f20290832ddefd"
          ],
          "data": "0x",
          "blockHash": "0xb4747007186bdb82b0f4b0b8c609cf753419f12a2e7b39229010ba01af7c2e30",
          "blockNumber": "0x8e0c7c",
          "blockTimestamp": "0x67860eba",
          "transactionHash": "0x87bc8a13d8e090770be6d13354bc9184fe2806338c989518d85f378464cec9a1",
          "transactionIndex": "0x8",
          "logIndex": "0x11",
          "removed": false
        },
        {
          "address": "0x6df961030ef9c2e2d79af42603e4ccc32b41fd64",
          "topics": [
            "0xc7f505b2f371ae2175ee4913f4499e1f2633a7b5936321eed1cdaeb6115181d2"
          ],
          "data": "0x0000000000000000000000000000000000000000000000000000000000000001",
          "blockHash": "0xb4747007186bdb82b0f4b0b8c609cf753419f12a2e7b39229010ba01af7c2e30",
          "blockNumber": "0x8e0c7c",
          "blockTimestamp": "0x67860eba",
          "transactionHash": "0x87bc8a13d8e090770be6d13354bc9184fe2806338c989518d85f378464cec9a1",
          "transactionIndex": "0x8",
          "logIndex": "0x12",
          "removed": false
        },
        {
          "address": "0x3551803af186dc58494872fc66ce90464814d400",
          "topics": [
            "0x8be0079c531659141344cd1fd0a4f28419497f9722a3daafe3b4186f6b6457e0",
            "0x0000000000000000000000000000000000000000000000000000000000000000",
            "0x000000000000000000000000d208203a7a54ffa823e9b0061a21260ed38ece6c"
          ],
          "data": "0x",
          "blockHash": "0xb4747007186bdb82b0f4b0b8c609cf753419f12a2e7b39229010ba01af7c2e30",
          "blockNumber": "0x8e0c7c",
          "blockTimestamp": "0x67860eba",
          "transactionHash": "0x87bc8a13d8e090770be6d13354bc9184fe2806338c989518d85f378464cec9a1",
          "transactionIndex": "0x8",
          "logIndex": "0x13",
          "removed": false
        },
        {
          "address": "0x6df961030ef9c2e2d79af42603e4ccc32b41fd64",
          "topics": [
            "0x7e644d79422f17c01e4894b5f4f588d331ebfa28653d42ae832dc59e38c9798f"
          ],
          "data": "0x00000000000000000000000000000000000000000000000000000000000000000000000000000000000000003551803af186dc58494872fc66ce90464814d400",
          "blockHash": "0xb4747007186bdb82b0f4b0b8c609cf753419f12a2e7b39229010ba01af7c2e30",
          "blockNumber": "0x8e0c7c",
          "blockTimestamp": "0x67860eba",
          "transactionHash": "0x87bc8a13d8e090770be6d13354bc9184fe2806338c989518d85f378464cec9a1",
          "transactionIndex": "0x8",
          "logIndex": "0x14",
          "removed": false
        }
      ],
      "logsBloom": "0x00000004000000000000008000000000400000000800000000800000000000000000000000000000000000000000000000000000000000000000000000000000000000000000000800002000000002000001200000000000000000000000020000000000030000000000000000000800000000800000000000000000000000400000000000002000000800000000000000000000000080000000000000800000000000000000000200008000000000000000000000000000001000000040100000000022000000000000000000000000000000000404000100000080000020000000000000000000000000000000000100000000000000000000000000000000",
      "type": "0x2",
      "transactionHash": "0x87bc8a13d8e090770be6d13354bc9184fe2806338c989518d85f378464cec9a1",
      "transactionIndex": "0x8",
      "blockHash": "0xb4747007186bdb82b0f4b0b8c609cf753419f12a2e7b39229010ba01af7c2e30",
      "blockNumber": "0x8e0c7c",
      "gasUsed": "0xb46f1",
      "effectiveGasPrice": "0x18c3393161",
      "from": "0x235a2ac113014f9dcb8aba6577f20290832ddefd",
      "to": null,
      "contractAddress": "0x6df961030ef9c2e2d79af42603e4ccc32b41fd64"
    },
    {
      "status": "0x1",
      "cumulativeGasUsed": "0x465ef7",
      "logs": [
        {
          "address": "0x8e826703b6d471732415abd4a1e724a3bf451511",
          "topics": [
            "0x8be0079c531659141344cd1fd0a4f28419497f9722a3daafe3b4186f6b6457e0",
            "0x000000000000000000000000235a2ac113014f9dcb8aba6577f20290832ddefd",
            "0x0000000000000000000000006df961030ef9c2e2d79af42603e4ccc32b41fd64"
          ],
          "data": "0x",
          "blockHash": "0xb4747007186bdb82b0f4b0b8c609cf753419f12a2e7b39229010ba01af7c2e30",
          "blockNumber": "0x8e0c7c",
          "blockTimestamp": "0x67860eba",
          "transactionHash": "0x236c5964d3e4eee29f83f643f05685d97343a050ed83280131d63b604b5e1317",
          "transactionIndex": "0x9",
          "logIndex": "0x15",
          "removed": false
        }
      ],
      "logsBloom": "0x00000040000000000040000000000000000000000000000000800000000000000000000000000000000000000000000000000000000000000000000000000000000000000000000000000000000000000001000000000000000000000000000000000000010000000000000000000000000000000000000000000000000000400000000000000000000000000000000000000000000000000000000000000000000000000000000200000000000000000000040000000000000000000040000000000000000000000080000000000000000000000000000000000000000000000000800000000000000000000000008000000000000000000000000000000000",
      "type": "0x2",
      "transactionHash": "0x236c5964d3e4eee29f83f643f05685d97343a050ed83280131d63b604b5e1317",
      "transactionIndex": "0x9",
      "blockHash": "0xb4747007186bdb82b0f4b0b8c609cf753419f12a2e7b39229010ba01af7c2e30",
      "blockNumber": "0x8e0c7c",
      "gasUsed": "0x8ca0",
      "effectiveGasPrice": "0x18c3393161",
      "from": "0x235a2ac113014f9dcb8aba6577f20290832ddefd",
      "to": "0x8e826703b6d471732415abd4a1e724a3bf451511",
      "contractAddress": null
    },
    {
      "status": "0x1",
      "cumulativeGasUsed": "0x46eb97",
      "logs": [
        {
          "address": "0x33c608b9e7ae1877dcb665bd3d2d3bb327b01156",
          "topics": [
            "0x8be0079c531659141344cd1fd0a4f28419497f9722a3daafe3b4186f6b6457e0",
            "0x000000000000000000000000235a2ac113014f9dcb8aba6577f20290832ddefd",
            "0x0000000000000000000000006df961030ef9c2e2d79af42603e4ccc32b41fd64"
          ],
          "data": "0x",
          "blockHash": "0xb4747007186bdb82b0f4b0b8c609cf753419f12a2e7b39229010ba01af7c2e30",
          "blockNumber": "0x8e0c7c",
          "blockTimestamp": "0x67860eba",
          "transactionHash": "0x33c9c806f59388f4e968048ff6e9f2905879044ca4115580769056c72c3726aa",
          "transactionIndex": "0xa",
          "logIndex": "0x16",
          "removed": false
        }
      ],
      "logsBloom": "0x00000000000000000040000000000000000000000001000000800000000000000000000000000000000000000020000000000000000000000000000000000000000000000000000000000000000000000001000000000000000000000000000000000000010000000000000000000000000000000000000000000001000000400000000000000000000000000000000000000000000000000000000000000000000000000000000200000000000000000000000000000000000000000040000000000000000000000080000000000000000000000000000000000000000000000000800000000000000000000000000000000000000000000000000000000000",
      "type": "0x2",
      "transactionHash": "0x33c9c806f59388f4e968048ff6e9f2905879044ca4115580769056c72c3726aa",
      "transactionIndex": "0xa",
      "blockHash": "0xb4747007186bdb82b0f4b0b8c609cf753419f12a2e7b39229010ba01af7c2e30",
      "blockNumber": "0x8e0c7c",
      "gasUsed": "0x8ca0",
      "effectiveGasPrice": "0x18c3393161",
      "from": "0x235a2ac113014f9dcb8aba6577f20290832ddefd",
      "to": "0x33c608b9e7ae1877dcb665bd3d2d3bb327b01156",
      "contractAddress": null
    },
    {
      "status": "0x1",
      "cumulativeGasUsed": "0x477837",
      "logs": [
        {
          "address": "0x8520b4ed7e7e54343ade583e6a7864718535eca9",
          "topics": [
            "0x8be0079c531659141344cd1fd0a4f28419497f9722a3daafe3b4186f6b6457e0",
            "0x000000000000000000000000235a2ac113014f9dcb8aba6577f20290832ddefd",
            "0x0000000000000000000000006df961030ef9c2e2d79af42603e4ccc32b41fd64"
          ],
          "data": "0x",
          "blockHash": "0xb4747007186bdb82b0f4b0b8c609cf753419f12a2e7b39229010ba01af7c2e30",
          "blockNumber": "0x8e0c7c",
          "blockTimestamp": "0x67860eba",
          "transactionHash": "0xe0fbbe9eaf1dc1dbb70ae6759109a16e2d0561e04a257898f1eb419d5e1fc6b2",
          "transactionIndex": "0xb",
          "logIndex": "0x17",
          "removed": false
        }
      ],
      "logsBloom": "0x00000000000000000040000000000000000000000000000000800000000000000000000020000000000000000000000000000000000000000000000000000000000000040000000000000000000000000001000000000000000000000000000000000000010000000000000000000000000000008000000000000000000000400000000000000000000000000000000000000000000000000000000000000000000000000000000200000000000000000000000000000000000000000040000000000000000000000080000000000000000000000000000000000000000000000000800000000000000000000000000000000000000000000000000000000000",
      "type": "0x2",
      "transactionHash": "0xe0fbbe9eaf1dc1dbb70ae6759109a16e2d0561e04a257898f1eb419d5e1fc6b2",
      "transactionIndex": "0xb",
      "blockHash": "0xb4747007186bdb82b0f4b0b8c609cf753419f12a2e7b39229010ba01af7c2e30",
      "blockNumber": "0x8e0c7c",
      "gasUsed": "0x8ca0",
      "effectiveGasPrice": "0x18c3393161",
      "from": "0x235a2ac113014f9dcb8aba6577f20290832ddefd",
      "to": "0x8520b4ed7e7e54343ade583e6a7864718535eca9",
      "contractAddress": null
    },
    {
      "status": "0x1",
      "cumulativeGasUsed": "0x4804d7",
      "logs": [
        {
          "address": "0x39da60365de955d03c6c1ab7b80e8a4c458fa87e",
          "topics": [
            "0x8be0079c531659141344cd1fd0a4f28419497f9722a3daafe3b4186f6b6457e0",
            "0x000000000000000000000000235a2ac113014f9dcb8aba6577f20290832ddefd",
            "0x0000000000000000000000006df961030ef9c2e2d79af42603e4ccc32b41fd64"
          ],
          "data": "0x",
          "blockHash": "0xb4747007186bdb82b0f4b0b8c609cf753419f12a2e7b39229010ba01af7c2e30",
          "blockNumber": "0x8e0c7c",
          "blockTimestamp": "0x67860eba",
          "transactionHash": "0x55434db1b24957cfc9fea5c69865bbe61f032ed038db9472132c400d14dde10f",
          "transactionIndex": "0xc",
          "logIndex": "0x18",
          "removed": false
        }
      ],
      "logsBloom": "0x00000000000400000040000000000000200000000000000000800000000000000000000000000000000000000000000000000000000000000000000020000000000000000000000000000000000000000001000000000000000000000000000000000000010000000000000000000000000000000000000000000000000000400000000000000000000000000000000000000000000000000000000000000000000000000000000200000000000000000000000000000000000000000040000000000000000000000080000000000000000000000000000000000000000000000000800000000000000000000000000000000000000000000000000000000000",
      "type": "0x2",
      "transactionHash": "0x55434db1b24957cfc9fea5c69865bbe61f032ed038db9472132c400d14dde10f",
      "transactionIndex": "0xc",
      "blockHash": "0xb4747007186bdb82b0f4b0b8c609cf753419f12a2e7b39229010ba01af7c2e30",
      "blockNumber": "0x8e0c7c",
      "gasUsed": "0x8ca0",
      "effectiveGasPrice": "0x18c3393161",
      "from": "0x235a2ac113014f9dcb8aba6577f20290832ddefd",
      "to": "0x39da60365de955d03c6c1ab7b80e8a4c458fa87e",
      "contractAddress": null
    },
    {
      "status": "0x1",
      "cumulativeGasUsed": "0x489177",
      "logs": [
        {
          "address": "0xb468a7ac04db7b07d8d2a8dec3e6008397ec3e4d",
          "topics": [
            "0x8be0079c531659141344cd1fd0a4f28419497f9722a3daafe3b4186f6b6457e0",
            "0x000000000000000000000000235a2ac113014f9dcb8aba6577f20290832ddefd",
            "0x0000000000000000000000006df961030ef9c2e2d79af42603e4ccc32b41fd64"
          ],
          "data": "0x",
          "blockHash": "0xb4747007186bdb82b0f4b0b8c609cf753419f12a2e7b39229010ba01af7c2e30",
          "blockNumber": "0x8e0c7c",
          "blockTimestamp": "0x67860eba",
          "transactionHash": "0xec27ecebc2e45633e0e48c765f7d387b64209ded064668f00dbc7a4506c6467d",
          "transactionIndex": "0xd",
          "logIndex": "0x19",
          "removed": false
        }
      ],
      "logsBloom": "0x00000000000000000040000000000000000000000000000000800000000000000000000000000000000000000000000000000000000000000000000000000000000000000000000000000000000000000001000000000000000000000000000000000000010000000000000000000000000000000000000000000000000000400000000000000000000000000000000000004000000000000000000000000000000000000000000200000000000000000000000000000000000000000040000000020000000000000080000000000000000000000000000000000000000000000000800000000000000080000000000000000000000000000000000000000000",
      "type": "0x2",
      "transactionHash": "0xec27ecebc2e45633e0e48c765f7d387b64209ded064668f00dbc7a4506c6467d",
      "transactionIndex": "0xd",
      "blockHash": "0xb4747007186bdb82b0f4b0b8c609cf753419f12a2e7b39229010ba01af7c2e30",
      "blockNumber": "0x8e0c7c",
      "gasUsed": "0x8ca0",
      "effectiveGasPrice": "0x18c3393161",
      "from": "0x235a2ac113014f9dcb8aba6577f20290832ddefd",
      "to": "0xb468a7ac04db7b07d8d2a8dec3e6008397ec3e4d",
      "contractAddress": null
    },
    {
      "status": "0x1",
      "cumulativeGasUsed": "0x11ee867",
      "logs": [
        {
          "address": "0xc3adc5347663c4fb93ad5029b6382a9f7fe73b05",
          "topics": [
            "0x8be0079c531659141344cd1fd0a4f28419497f9722a3daafe3b4186f6b6457e0",
            "0x000000000000000000000000235a2ac113014f9dcb8aba6577f20290832ddefd",
            "0x0000000000000000000000006df961030ef9c2e2d79af42603e4ccc32b41fd64"
          ],
          "data": "0x",
          "blockHash": "0x2a74cc9f7d7e1576ebded7dbec0d6ca00718d3deb4bd26ae126377a403eb8df1",
          "blockNumber": "0x8e0c7d",
          "blockTimestamp": "0x67860ebb",
          "transactionHash": "0xd2babc8e2501cd548ca46e53ae630215cd2ddc92beab4c561c2a33f616e17578",
          "transactionIndex": "0xa6",
          "logIndex": "0x226",
          "removed": false
        }
      ],
      "logsBloom": "0x00000000000000000040000000000000000000000000000000800000000000000000000000000000000000000000000000000000000000000000000000000000000000400000000000000000000000000001000000000000000000000000000000000000010000000000000000000000000000000000000000000000000000400000000000000000000000000000000000000000000000000000000800000000000200000000000200000000000000000000000000000000000000000040000000000000000000000080000000000000000000000000000000000000000000000000800000000000000000000000000000000000000000000000000000000000",
      "type": "0x2",
      "transactionHash": "0xd2babc8e2501cd548ca46e53ae630215cd2ddc92beab4c561c2a33f616e17578",
      "transactionIndex": "0xa6",
      "blockHash": "0x2a74cc9f7d7e1576ebded7dbec0d6ca00718d3deb4bd26ae126377a403eb8df1",
      "blockNumber": "0x8e0c7d",
      "gasUsed": "0x8ca0",
      "effectiveGasPrice": "0x16bce6aea5",
      "from": "0x235a2ac113014f9dcb8aba6577f20290832ddefd",
      "to": "0xc3adc5347663c4fb93ad5029b6382a9f7fe73b05",
      "contractAddress": null
    },
    {
      "status": "0x1",
      "cumulativeGasUsed": "0x121bce0",
      "logs": [],
      "logsBloom": "0x00000000000000000000000000000000000000000000000000000000000000000000000000000000000000000000000000000000000000000000000000000000000000000000000000000000000000000000000000000000000000000000000000000000000000000000000000000000000000000000000000000000000000000000000000000000000000000000000000000000000000000000000000000000000000000000000000000000000000000000000000000000000000000000000000000000000000000000000000000000000000000000000000000000000000000000000000000000000000000000000000000000000000000000000000000000",
      "type": "0x2",
      "transactionHash": "0x7958a1f2a969f6a30f13a7ce63e313b56aeea5457373e44b97ff52476af13b9e",
      "transactionIndex": "0xa7",
      "blockHash": "0x2a74cc9f7d7e1576ebded7dbec0d6ca00718d3deb4bd26ae126377a403eb8df1",
      "blockNumber": "0x8e0c7d",
      "gasUsed": "0x2d479",
      "effectiveGasPrice": "0x16bce6aea5",
      "from": "0x235a2ac113014f9dcb8aba6577f20290832ddefd",
      "to": "0x6df961030ef9c2e2d79af42603e4ccc32b41fd64",
      "contractAddress": null
    },
    {
      "status": "0x1",
      "cumulativeGasUsed": "0x123f98f",
      "logs": [],
      "logsBloom": "0x00000000000000000000000000000000000000000000000000000000000000000000000000000000000000000000000000000000000000000000000000000000000000000000000000000000000000000000000000000000000000000000000000000000000000000000000000000000000000000000000000000000000000000000000000000000000000000000000000000000000000000000000000000000000000000000000000000000000000000000000000000000000000000000000000000000000000000000000000000000000000000000000000000000000000000000000000000000000000000000000000000000000000000000000000000000",
      "type": "0x2",
      "transactionHash": "0x8ac128f3add51e3c369632f0766aad5e1736162da2d2c52726685fb51930d715",
      "transactionIndex": "0xa8",
      "blockHash": "0x2a74cc9f7d7e1576ebded7dbec0d6ca00718d3deb4bd26ae126377a403eb8df1",
      "blockNumber": "0x8e0c7d",
      "gasUsed": "0x23caf",
      "effectiveGasPrice": "0x16bce6aea5",
      "from": "0x235a2ac113014f9dcb8aba6577f20290832ddefd",
      "to": "0x6df961030ef9c2e2d79af42603e4ccc32b41fd64",
      "contractAddress": null
    },
    {
      "status": "0x1",
      "cumulativeGasUsed": "0x12635d7",
      "logs": [],
      "logsBloom": "0x00000000000000000000000000000000000000000000000000000000000000000000000000000000000000000000000000000000000000000000000000000000000000000000000000000000000000000000000000000000000000000000000000000000000000000000000000000000000000000000000000000000000000000000000000000000000000000000000000000000000000000000000000000000000000000000000000000000000000000000000000000000000000000000000000000000000000000000000000000000000000000000000000000000000000000000000000000000000000000000000000000000000000000000000000000000",
      "type": "0x2",
      "transactionHash": "0x01a40219d84890ecb12ab7f2a18e825d4c5e605bd5db2f09e9b9bd08070ec209",
      "transactionIndex": "0xa9",
      "blockHash": "0x2a74cc9f7d7e1576ebded7dbec0d6ca00718d3deb4bd26ae126377a403eb8df1",
      "blockNumber": "0x8e0c7d",
      "gasUsed": "0x23c48",
      "effectiveGasPrice": "0x16bce6aea5",
      "from": "0x235a2ac113014f9dcb8aba6577f20290832ddefd",
      "to": "0x6df961030ef9c2e2d79af42603e4ccc32b41fd64",
      "contractAddress": null
    },
    {
      "status": "0x1",
      "cumulativeGasUsed": "0x128726c",
      "logs": [],
      "logsBloom": "0x00000000000000000000000000000000000000000000000000000000000000000000000000000000000000000000000000000000000000000000000000000000000000000000000000000000000000000000000000000000000000000000000000000000000000000000000000000000000000000000000000000000000000000000000000000000000000000000000000000000000000000000000000000000000000000000000000000000000000000000000000000000000000000000000000000000000000000000000000000000000000000000000000000000000000000000000000000000000000000000000000000000000000000000000000000000",
      "type": "0x2",
      "transactionHash": "0xb7fc4437e000c9f4b196f6a29e391a963b7ab6adb38fb3cd75784471f64b154e",
      "transactionIndex": "0xaa",
      "blockHash": "0x2a74cc9f7d7e1576ebded7dbec0d6ca00718d3deb4bd26ae126377a403eb8df1",
      "blockNumber": "0x8e0c7d",
      "gasUsed": "0x23c95",
      "effectiveGasPrice": "0x16bce6aea5",
      "from": "0x235a2ac113014f9dcb8aba6577f20290832ddefd",
      "to": "0x6df961030ef9c2e2d79af42603e4ccc32b41fd64",
      "contractAddress": null
    },
    {
      "status": "0x1",
      "cumulativeGasUsed": "0x12aaef5",
      "logs": [],
      "logsBloom": "0x00000000000000000000000000000000000000000000000000000000000000000000000000000000000000000000000000000000000000000000000000000000000000000000000000000000000000000000000000000000000000000000000000000000000000000000000000000000000000000000000000000000000000000000000000000000000000000000000000000000000000000000000000000000000000000000000000000000000000000000000000000000000000000000000000000000000000000000000000000000000000000000000000000000000000000000000000000000000000000000000000000000000000000000000000000000",
      "type": "0x2",
      "transactionHash": "0xe9747dd5fa2054fbe85a430046b1ae2dbed125b12f7d42fff44619e2d814fe96",
      "transactionIndex": "0xab",
      "blockHash": "0x2a74cc9f7d7e1576ebded7dbec0d6ca00718d3deb4bd26ae126377a403eb8df1",
      "blockNumber": "0x8e0c7d",
      "gasUsed": "0x23c89",
      "effectiveGasPrice": "0x16bce6aea5",
      "from": "0x235a2ac113014f9dcb8aba6577f20290832ddefd",
      "to": "0x6df961030ef9c2e2d79af42603e4ccc32b41fd64",
      "contractAddress": null
    },
    {
      "status": "0x1",
      "cumulativeGasUsed": "0x12ceb8a",
      "logs": [],
      "logsBloom": "0x00000000000000000000000000000000000000000000000000000000000000000000000000000000000000000000000000000000000000000000000000000000000000000000000000000000000000000000000000000000000000000000000000000000000000000000000000000000000000000000000000000000000000000000000000000000000000000000000000000000000000000000000000000000000000000000000000000000000000000000000000000000000000000000000000000000000000000000000000000000000000000000000000000000000000000000000000000000000000000000000000000000000000000000000000000000",
      "type": "0x2",
      "transactionHash": "0xe8cb6bd6ff06455b252ca1092497cb5b77d8f1b7c2b55bd6ef34203e9b59acc5",
      "transactionIndex": "0xac",
      "blockHash": "0x2a74cc9f7d7e1576ebded7dbec0d6ca00718d3deb4bd26ae126377a403eb8df1",
      "blockNumber": "0x8e0c7d",
      "gasUsed": "0x23c95",
      "effectiveGasPrice": "0x16bce6aea5",
      "from": "0x235a2ac113014f9dcb8aba6577f20290832ddefd",
      "to": "0x6df961030ef9c2e2d79af42603e4ccc32b41fd64",
      "contractAddress": null
    }
  ],
  "libraries": [],
  "pending": [],
  "returns": {},
  "timestamp": 1736838906,
  "chain": 80084,
  "commit": "070d8c8"
}